:100000000C942A000C9447000C9462160C94470040
:100010000C9447000C9447000C9447000C94470044
:100020000C9447000C940D0F0C9447000C9447005F
:100030000C9447000C9447000C9447000C94470024
:100040000C9447000C9447000C9447000C94470014
:100050000C94470011241FBECFE5D8E0DEBFCDBF12
:1000600011E0A0E6B0E0E6E4F0E302C005900D92F6
:10007000AA36B107D9F711E0AAE6B1E001C01D9296
:10008000AF39B107E1F70E947C160C9421180C944B
:100090000000EF92FF920F931F937B018C0120E0F1
:1000A00030E040E05FE40E94F50388238CF0C80153
:1000B000B70120E030E040E05FE40E94C1010E940F
:1000C00055049B01AC01205030404040504806C0D0
:1000D000C801B7010E9455049B01AC01B901CA01D6
:1000E0001F910F91FF90EF900895A0E0B0E0EBE733
:1000F000F0E00C94EA17DC012B01FA019C9192309C
:1001000008F439C1EB018881823008F433C194309E
:1001100069F4843009F02FC111969C91119789815F
:10012000981709F428C1A0E6B0E025C1843009F48D
:1001300021C18230A9F4923009F01DC19A01AD01AC
:1001400088E0EA010990AE01E90109929E0181501F
:10015000C1F7E201898111969C918923818308C1AD
:10016000923009F407C112962D903C901397EB0141
:100170008A819B811496AD90BD90CD90DC901797AD
:10018000EC80FD800E811F819101281B390BB90184
:1001900037FF04C066277727621B730B6032710537
:1001A0000CF061C0121613066CF537014801062EDB
:1001B00004C096948794779467940A94D2F721E0C8
:1001C00030E040E050E004C0220F331F441F551FB1
:1001D0006A95D2F721503040404050402E213F21B7
:1001E00040235123211531054105510521F021E01E
:1001F00030E040E050E079018A01E628F72808293C
:1002000019293CC0232BD1F1260E371E350146019A
:10021000062E04C096948794779467940A94D2F734
:1002200021E030E040E050E004C0220F331F441FC3
:10023000551F6A95D2F721503040404050402A2146
:100240003B214C215D21211531054105510521F04E
:1002500021E030E040E050E059016A01A628B728CB
:10026000C828D9280BC0821593052CF01C01AA249C
:10027000BB24650103C0EE24FF24870111969C91E5
:10028000D20111968C91981709F445C0992339F041
:10029000A80197012A193B094C095D0906C0A6016E
:1002A00095012E193F09400B510B57FD08C01182D3
:1002B0003382228224833583468357831DC081E0A5
:1002C00081833382228288279927DC01821B930B4A
:1002D000A40BB50B84839583A683B7830DC0220F2F
:1002E000331F441F551F24833583468357838281E0
:1002F000938101979383828324813581468157813D
:10030000DA01C9010197A109B1098F5F9F4FAF4F72
:10031000BF4328F30BC0918333822282EA0CFB1C7B
:100320000C1D1D1DE482F5820683178383E0808304
:10033000248135814681578157FF1AC0C901AA27F8
:1003400097FDA095BA2F81709070A070B0705695EF
:10035000479537952795822B932BA42BB52B848318
:100360009583A683B7838281938101969383828349
:10037000DF0101C0D201CD01CDB7DEB7E2E10C94BF
:100380000618A0E2B0E0E7ECF1E00C94F617698300
:100390007A838B839C832D833E834F835887E9E048
:1003A000EE2EF12CEC0EFD1ECE010196B7010E943F
:1003B00046068E010F5E1F4FCE010596B8010E94C2
:1003C00046068A8991E089278A8BC701B801AE0168
:1003D000475E5F4F0E9475000E947105A096E6E09F
:1003E0000C941218A0E2B0E0E8EFF1E00C94F617DC
:1003F00069837A838B839C832D833E834F835887C5
:10040000F9E0EF2EF12CEC0EFD1ECE010196B701A6
:100410000E9446068E010F5E1F4FCE010596B80161
:100420000E944606C701B801AE01475E5F4F0E94B9
:1004300075000E947105A096E6E00C941218A0E2E7
:10044000B0E0E5E2F2E00C94EA1769837A838B83EB
:100450009C832D833E834F835887CE010196BE0136
:10046000675F7F4F0E944606CE010596BE016F5E14
:100470007F4F0E9446069985923088F089898230A4
:10048000C8F0943019F4823051F404C0843029F457
:10049000923081F480E690E0C6C0923049F420E0CA
:1004A0009A858A89981321E02A87CE010996BBC0D4
:1004B000823049F420E09A858A89981321E02A8BBA
:1004C000CE014196B0C02D843E844F8458886D88FB
:1004D0007E888F88988CEE24FF248701AA24BB2471
:1004E000650140E050E060E070E0E0E0F0E0C10174
:1004F00081709070892BE9F0E60CF71C081D191D1E
:100500009A01AB012A0D3B1D4C1D5D1D80E090E062
:10051000A0E0B0E0E614F7040805190520F481E036
:1005200090E0A0E0B0E0BA01A901480F591F6A1F8E
:100530007B1FAA0CBB1CCC1CDD1C97FE08C081E0F5
:1005400090E0A0E0B0E0A82AB92ACA2ADB2A3196B6
:10055000E032F10549F0660C771C881C991C569412
:10056000479437942794C3CFFA85EA892B893C892D
:100570008B859C85280F391F2E5F3F4F17C0CA01FE
:1005800081709070892B61F016950795F794E79428
:1005900080E090E0A0E0B0E8E82AF92A0A2B1B2BC3
:1005A00076956795579547952F5F3F4F77FDE7CF36
:1005B0000CC0440F551F661F771F17FD4160EE0CDE
:1005C000FF1C001F111F21503040403090E05907A0
:1005D00090E0690790E4790760F32B8F3C8FDB0193
:1005E000CA018F779070A070B07080349105A1051A
:1005F000B10561F447FD0AC0E114F10401051105DC
:1006000029F0405C5F4F6F4F7F4F40781A8EFE1786
:1006100011F081E08A8F4D8F5E8F6F8F78A383E01A
:10062000898FCE0149960E947105A096E2E10C9453
:100630000618A8E1B0E0EFE1F3E00C94F21769834B
:100640007A838B839C832D833E834F835887B9E0C5
:10065000EB2EF12CEC0EFD1ECE010196B7010E948F
:1006600046068E010F5E1F4FCE010596B8010E940F
:1006700046062985223008F47EC03989323010F4CC
:10068000B8017CC08A859A8989278A87243011F02D
:10069000223031F4231709F06EC060E670E06EC0BE
:1006A000343039F41D861E861F86188A1C861B86E8
:1006B00004C0323021F484E08987B7015FC02B8504
:1006C0003C858B899C89281B390B3C872B87ED84C3
:1006D000FE840F851889AD88BE88CF88D88CEA142F
:1006E000FB040C051D0540F4EE0CFF1C001F111F40
:1006F000215030403C872B8720E030E040E050E044
:1007000080E090E0A0E0B0E460E070E0EA14FB0478
:100710000C051D0540F0282B392B4A2B5B2BEA18C2
:10072000FB080C091D09B695A79597958795EE0CC2
:10073000FF1C001F111F6F5F7F4F6F31710531F775
:10074000DA01C9018F779070A070B0708034910584
:10075000A105B10561F427FD0AC0E114F10401050A
:10076000110529F0205C3F4F4F4F5F4F20782D87B8
:100770003E874F87588BBE01675F7F4FCB010E943A
:1007800071056896EAE00C940E18A8E1B0E0EBEC75
:10079000F3E00C94F61769837A838B839C832D8313
:1007A0003E834F83588789E0E82EF12CEC0EFD1E26
:1007B000CE010196B7010E9446068E010F5E1F4FC3
:1007C000CE010596B8010E9446068985823040F028
:1007D0008989823028F0C701B8010E94BE0601C095
:1007E0008FEF6896E6E00C941218A8E1B0E0EBEF0A
:1007F000F3E00C94F61769837A838B839C832D83B3
:100800003E834F83588789E0E82EF12CEC0EFD1EC5
:10081000CE010196B7010E9446068E010F5E1F4F62
:10082000CE010596B8010E9446068985823040F0C7
:100830008989823028F0C701B8010E94BE0601C034
:100840008FEF6896E6E00C941218A8E1B0E0EBE2B6
:10085000F4E00C94F61769837A838B839C832D8351
:100860003E834F83588789E0E82EF12CEC0EFD1E65
:10087000CE010196B7010E9446068E010F5E1F4F02
:10088000CE010596B8010E9446068985823040F067
:100890008989823028F0C701B8010E94BE0601C0D4
:1008A00081E06896E6E00C941218ACE0B0E0EBE56D
:1008B000F4E00C94FA1769837A838B839C83CE01CE
:1008C0000196BE016B5F7F4F0E9446068D8182308C
:1008D00061F1823050F1843021F48E81882351F10E
:1008E0002EC02F81388537FD20C06E812F31310514
:1008F0001CF06623F9F023C08EE190E0821B930B7D
:1009000029853A854B855C8504C056954795379572
:1009100027958A95D2F76623B1F05095409530958A
:1009200021953F4F4F4F5F4F0EC020E030E040E039
:1009300050E009C02FEF3FEF4FEF5FE704C020E02A
:1009400030E040E050E8B901CA012C96E2E00C9496
:100950001618A8E0B0E0EFEAF4E00C94F2177B017F
:100960008C01611571058105910519F482E0898377
:1009700060C083E089838EE1C82ED12CDC82CB82DB
:10098000ED82FE820F831887C801B7010E942205FD
:10099000FC013197F7FF3BC0222733272E1B3F0B6B
:1009A00057016801022E04C0D694C794B794A79447
:1009B0000A94D2F740E050E060E070E081E090E01F
:1009C000A0E0B0E004C0880F991FAA1FBB1F2A95A2
:1009D000D2F70197A109B1098E219F21A023B1234C
:1009E0000097A105B10521F041E050E060E070E022
:1009F0004A295B296C297D294D835E836F83788723
:100A00008EE190E08E1B9F0B9C838B8312C03097EE
:100A100081F00E2E04C0EE0CFF1C001F111F0A9463
:100A2000D2F7ED82FE820F831887CE1ADF0ADC82AE
:100A3000CB821A82CE0101960E9471052896EAE0C7
:100A40000C940E18EF92FF920F931F937B018C0171
:100A500080E0E81680E0F80681E0080780E01807EB
:100A600088F48FEFE816F1040105110531F028F044
:100A700088E090E0A0E0B0E017C080E090E0A0E067
:100A8000B0E012C080E0E81680E0F80680E00807D9
:100A900081E0180728F088E190E0A0E0B0E004C011
:100AA00080E190E0A0E0B0E020E230E040E050E003
:100AB000281B390B4A0B5B0B04C016950795F7945E
:100AC000E7948A95D2F7F701E859FF4F8081281BF8
:100AD000310941095109C9011F910F91FF90EF9010
:100AE0000895DF92EF92FF920F931F93FC01E48031
:100AF000F58006811781D1808081823048F480E0C2
:100B000090E0A0E1B0E0E82AF92A0A2B1B2BA5C04F
:100B1000843009F49FC0823021F4EE24FF24870141
:100B200005C0E114F1040105110519F4E0E0F0E05D
:100B300096C0628173819FEF623879070CF05BC0C9
:100B400022E83FEF261B370B2A3131052CF020E03D
:100B500030E040E050E02AC0B801A701022E04C0F6
:100B600076956795579547950A94D2F781E090E07E
:100B7000A0E0B0E004C0880F991FAA1FBB1F2A95F0
:100B8000D2F70197A109B1098E219F21A023B1239A
:100B90000097A105B10521F081E090E0A0E0B0E070
:100BA0009A01AB01282B392B4A2B5B2BDA01C901A7
:100BB0008F779070A070B07080349105A105B10559
:100BC00039F427FF09C0205C3F4F4F4F5F4F04C0EF
:100BD000215C3F4F4F4F5F4FE0E0F0E02030A0E05E
:100BE0003A07A0E04A07A0E45A0710F0E1E0F0E07D
:100BF00079018A0127C06038710564F5FB01E1586D
:100C0000FF4FD801C7018F779070A070B07080340B
:100C10009105A105B10539F4E7FE0DC080E490E02F
:100C2000A0E0B0E004C08FE390E0A0E0B0E0E80E08
:100C3000F91E0A1F1B1F17FF05C016950795F7948D
:100C4000E794319687E016950795F794E7948A958F
:100C5000D1F705C0EE24FF248701EFEFF0E06E2FFF
:100C6000679566276795902F9F77D794DD24D79453
:100C70008E2F8695492F462B582F5D29B701CA0123
:100C80001F910F91FF90EF90DF900895FC01DB0121
:100C9000408151812281622F6F7770E0221F2227CD
:100CA000221F9381892F880F822B282F30E0991FD4
:100CB0009927991F11969C93119721153105A9F534
:100CC000411551056105710511F482E037C082E8D4
:100CD0009FEF13969C938E9312979A01AB0167E056
:100CE000220F331F441F551F6A95D1F783E08C9361
:100CF0000DC0220F331F441F551F12968D919C91DA
:100D00001397019713969C938E931297203080E04F
:100D1000380780E0480780E4580758F314962D936D
:100D20003D934D935C93179708952F3F310579F4C8
:100D3000411551056105710519F484E08C930895FE
:100D400064FF03C081E08C9312C01C9210C02F5727
:100D5000304013963C932E93129783E08C9387E058
:100D6000440F551F661F771F8A95D1F7706414963C
:100D70004D935D936D937C93179708951F93DC01BA
:100D8000FB019C91923008F447C08081823008F4C6
:100D900043C0943051F411961C91843099F58181AF
:100DA000682F70E0611B71093FC0843021F09230E0
:100DB00031F48230B9F18181882389F12DC01196F7
:100DC0001C9111978230F1F081811817D9F4129695
:100DD0002D913C911397828193818217930794F010
:100DE00028173907BCF014968D919D910D90BC91F8
:100DF000A02D2481358146815781281739074A075C
:100E00005B0718F4112341F00AC082179307A40767
:100E1000B50740F4112319F061E070E005C06FEFF1
:100E20007FEF02C060E070E0CB011F910895DF9377
:100E3000CF93CDB7DEB7E0E4F0E01082E9E2F0E076
:100E400083E3808383E060E040E00E949B0C83E0CA
:100E500061E041E00E949B0CE0E4F0E086E88083E2
:100E6000EAE2F0E088E18083CF91DF910895DF939B
:100E7000CF93CDB7DEB7EBE2F0E080818823DCF7DB
:100E8000ECE2F0E08081CF91DF910895DF93CF9382
:100E9000CDB7DEB70E941707AAE2B0E0EAE2F0E0C1
:100EA0008081806C8C937894CF91DF910895DF934B
:100EB000CF930F92CDB7DEB78983EBE2F0E080816C
:100EC000829586958770882F90E08170907000974A
:100ED000A1F3ABE2B0E0EBE2F0E0808180628C93C2
:100EE000ECE2F0E08981808307C0ABE2B0E0EBE2A6
:100EF000F0E0808180648C93EBE2F0E08081829569
:100F0000869586958370882F90E081709070009709
:100F100061F30F90CF91DF910895DF93CF93CDB719
:100F2000DEB70E944B0BAFE4B0E0EFE4F0E080816D
:100F30008E7F8C93AFE4B0E0EFE4F0E080818D7FB2
:100F40008C93AEE4B0E0EEE4F0E08081877F8C9398
:100F5000AEE4B0E0EEE4F0E080818F7E8C93AEE40E
:100F6000B0E0EEE4F0E0808182608C93A9E5B0E02F
:100F7000E9E5F0E0808184608C93CF91DF91089562
:100F8000DF93CF9300D0CDB7DEB79A8389830E94D9
:100F90004B0BAFE4B0E0EFE4F0E080818E7F8C9308
:100FA000AFE4B0E0EFE4F0E0808182608C93AEE4E7
:100FB000B0E0EEE4F0E08081877F8C93AEE4B0E0B7
:100FC000EEE4F0E080818F7E8C93EAE4F0E08981AA
:100FD0009A8191838083AEE4B0E0EEE4F0E080811A
:100FE00082608C93A9E5B0E0E9E5F0E08081806162
:100FF0008C930F900F90CF91DF910895DF93CF9353
:1010000000D0CDB7DEB79A8389830E944B0BAFE443
:10101000B0E0EFE4F0E080818E7F8C93AFE4B0E04D
:10102000EFE4F0E0808182608C93AEE4B0E0EEE427
:10103000F0E08081877F8C93AEE4B0E0EEE4F0E0F6
:1010400080818F7E8C93E8E4F0E089819A8191839E
:101050008083AEE4B0E0EEE4F0E0808182608C93C7
:10106000A9E5B0E0E9E5F0E0808188608C930F901D
:101070000F90CF91DF910895DF93CF93CDB7DEB777
:10108000AFE4B0E0EFE4F0E0808182608C93AFE405
:10109000B0E0EFE4F0E080818E7F8C93AEE4B0E0CE
:1010A000EEE4F0E0808188608C93AEE4B0E0EEE4A2
:1010B000F0E0808180618C93AFE4B0E0EFE4F0E099
:1010C000808180688C93AFE4B0E0EFE4F0E0808151
:1010D0008F7B8C93AEE4B0E0EEE4F0E08081826040
:1010E0008C9383E065E041E00E949B0CCF91DF91FF
:1010F0000895DF93CF93CDB7DEB7AFE4B0E0EFE470
:10110000F0E0808182608C93AFE4B0E0EFE4F0E047
:1011100080818E7F8C93AEE4B0E0EEE4F0E08081DD
:1011200088608C93AEE4B0E0EEE4F0E08081806112
:101130008C93AFE4B0E0EFE4F0E0808180628C93C8
:10114000AFE4B0E0EFE4F0E080818F7E8C93AEE41A
:10115000B0E0EEE4F0E0808182608C9383E064E0B4
:1011600041E00E949B0CCF91DF910895DF93CF93D4
:1011700000D0CDB7DEB79A838983EAE4F0E08981B5
:101180009A81918380830F900F90CF91DF91089582
:10119000DF93CF9300D0CDB7DEB79A838983E8E49D
:1011A000F0E089819A81918380830F900F90CF9195
:1011B000DF910895DF93CF9300D0CDB7DEB79A8348
:1011C0008983E6E4F0E089819A81918380830F909E
:1011D0000F90CF91DF910895DF93CF9300D0CDB7DB
:1011E000DEB79A838983ECE4F0E089819A81918368
:1011F00080830F900F90CF91DF910895DF93CF936D
:1012000000D000D00F92CDB7DEB79A8389836B836D
:10121000AFE4B0E0EFE4F0E0808182608C93AFE473
:10122000B0E0EFE4F0E080818E7F8C93AEE4B0E03C
:10123000EEE4F0E0808188608C93AEE4B0E0EEE410
:10124000F0E0808180618C93AFE4B0E0EFE4F0E007
:1012500080818F7B8C93AFE4B0E0EFE4F0E080819D
:1012600080688C93E6E4F0E089819A8191838083A1
:101270008B81282F30E03D832C838C819D818830A9
:10128000910509F12C813D812034310591F18C814A
:101290009D818130910509F041C0AEE4B0E0EEE4FB
:1012A000F0E0808181608C93AEE4B0E0EEE4F0E0A9
:1012B00080818D7F8C93AEE4B0E0EEE4F0E080813D
:1012C0008B7F8C932BC0AEE4B0E0EEE4F0E0808145
:1012D0008E7F8C93AEE4B0E0EEE4F0E0808182603B
:1012E0008C93AEE4B0E0EEE4F0E080818B7F8C93F1
:1012F00015C0AEE4B0E0EEE4F0E0808181608C9354
:10130000AEE4B0E0EEE4F0E0808182608C93AEE485
:10131000B0E0EEE4F0E080818B7F8C9383E065E0C9
:1013200041E00E949B0C0F900F900F900F900F9038
:10133000CF91DF910895DF93CF9300D00F92CDB777
:10134000DEB789837B836A838981882339F4EAE461
:10135000F0E08A819B819183808309C089818130FB
:1013600031F4E8E4F0E08A819B81918380830F90DF
:101370000F900F90CF91DF910895DF93CF93CDB76A
:10138000DEB70E944B0BA3E5B0E0E3E5F0E080811F
:101390008F7B8C93A3E5B0E0E3E5F0E08081877F6D
:1013A0008C93A3E5B0E0E3E5F0E080818E7F8C9341
:1013B000A3E5B0E0E3E5F0E0808182608C93A3E5F3
:1013C000B0E0E3E5F0E080818B7F8C93A9E5B0E0AD
:1013D000E9E5F0E0808181608C93CF91DF91089501
:1013E000DF93CF93CDB7DEB70E944B0BA3E5B0E000
:1013F000E3E5F0E080818F7B8C93A3E5B0E0E3E54B
:10140000F0E0808188608C93A3E5B0E0E3E5F0E054
:1014100080818E7F8C93A3E5B0E0E3E5F0E08081EE
:1014200082608C93A3E5B0E0E3E5F0E080818B7F00
:101430008C93ECE5F0E08FEF8083A9E5B0E0E9E57F
:10144000F0E0808182608C93CF91DF910895DF93EB
:10145000CF930F92CDB7DEB78983ECE5F0E08981B9
:1014600080830F90CF91DF910895DF93CF93CDB715
:10147000DEB7A3E5B0E0E3E5F0E0808180648C9323
:10148000A3E5B0E0E3E5F0E0808188608C93A3E51C
:10149000B0E0E3E5F0E080818E7F8C93A3E5B0E0DF
:1014A000E3E5F0E0808182608C93A3E5B0E0E3E5C2
:1014B000F0E080818B7F8C93A3E5B0E0E3E5F0E082
:1014C000808180618C93A3E5B0E0E3E5F0E080816A
:1014D00080628C9381E063E041E00E949B0CCF919D
:1014E000DF910895DF93CF93CDB7DEB7A3E5B0E0EA
:1014F000E3E5F0E0808180648C93A3E5B0E0E3E570
:10150000F0E0808188608C93A3E5B0E0E3E5F0E053
:1015100080818E7F8C93A3E5B0E0E3E5F0E08081ED
:1015200082608C93A3E5B0E0E3E5F0E080818B7FFF
:101530008C93A3E5B0E0E3E5F0E080818F7E8C93AF
:10154000A3E5B0E0E3E5F0E0808180628C9381E088
:1015500063E041E00E949B0CCF91DF910895DF93FF
:10156000CF93CDB7DEB7A3E5B0E0E3E5F0E080814F
:1015700080648C93A3E5B0E0E3E5F0E080818860CF
:101580008C93A3E5B0E0E3E5F0E080818F7E8C935F
:10159000A3E5B0E0E3E5F0E0808180628C93A3E511
:1015A000B0E0E3E5F0E080818E7F8C93A3E5B0E0CE
:1015B000E3E5F0E0808182608C93A3E5B0E0E3E5B1
:1015C000F0E080818B7F8C9381E063E041E00E94BA
:1015D0009B0CCF91DF910895DF93CF930F92CDB7FE
:1015E000DEB78983ECE5F0E0898180830F90CF91AD
:1015F000DF910895DF93CF93CDB7DEB781E065E04B
:1016000041E00E949B0C81E067E041E00E949B0C5E
:1016100081E064E041E00E949B0C81E066E040E0F4
:101620000E949B0CEDE2F0E081E58083CF91DF9199
:101630000895DF93CF93CDB7DEB7CF91DF910895B3
:10164000DF93CF93CDB7DEB7CF91DF910895DF93CE
:10165000CF93CDB7DEB7CF91DF910895DF93CF93CE
:101660000F92CDB7DEB78983EFE2F0E08981808306
:10167000EEE2F0E080818823DCF7AEE2B0E0EEE25B
:10168000F0E0808180688C93EFE2F0E080810F9041
:10169000CF91DF910895DF93CF93CDB7DEB7AFE55C
:1016A000B0E0EFE5F0E0808180688C93CF91DF912E
:1016B0000895DF93CF93CDB7DEB7AFE5B0E0EFE5A8
:1016C000F0E080818F778C93CF91DF910895DF9345
:1016D000CF93CDB7DEB70E944B0BA5E5B0E0E5E5B3
:1016E000F0E0808182608C93A5E5B0E0E5E5F0E074
:1016F00080818E7F8C93A5E5B0E0E5E5F0E0808108
:1017000088608C93A5E5B0E0E5E5F0E080818B7F13
:101710008C93ABE5B0E0EBE5F0E0808180648C93E6
:10172000ABE5B0E0EBE5F0E0808180688C9383E08E
:1017300063E040E00E949B0C83E063E041E00E9494
:10174000970DCF91DF910895DF93CF93CDB7DEB79B
:10175000CF91DF910895DF93CF93CDB7DEB7A7E2A6
:10176000B0E0E7E2F0E080818F778C93A7E2B0E011
:10177000E7E2F0E0808180648C93A7E2B0E0E7E2EA
:10178000F0E080818F7D8C93A6E2B0E0E6E2F0E0AD
:10179000808181608C93A6E2B0E0E6E2F0E0808197
:1017A00082608C93A6E2B0E0E6E2F0E080818460A3
:1017B0008C93A6E2B0E0E6E2F0E0808180688C9352
:1017C000CF91DF910895DF93CF930F92CDB7DEB71E
:1017D0008983A7E2B0E0E7E2F0E08081807E8C932D
:1017E000A7E2B0E0E7E2F0E090818981892B8C9359
:1017F000A6E2B0E0E6E2F0E0808180648C93E6E26D
:10180000F0E0808182958F70882F90E081709070D9
:101810000097A9F3A6E2B0E0E6E2F0E08081806103
:101820008C93E4E2F0E0808191810F90CF91DF9181
:101830000895DF93CF9300D000D0CDB7DEB7898372
:101840006A838981282F30E03C832B838B819C81A4
:1018500081309105D1F02B813C81223031052CF46F
:101860008B819C81009761F01EC02B813C812230CE
:10187000310581F08B819C818330910581F013C00B
:10188000EAE3F0E08A8180830EC0E7E3F0E08A813A
:10189000808309C0E4E3F0E08A81808304C0E1E34F
:1018A000F0E08A8180830F900F900F900F90CF917E
:1018B000DF910895DF93CF9300D000D0CDB7DEB78E
:1018C00089836A838981282F30E03C832B838B8135
:1018D0009C8181309105D1F02B813C8122303105F2
:1018E0002CF48B819C81009761F01EC02B813C8180
:1018F0002230310581F08B819C818330910581F00C
:1019000013C0EBE3F0E08A8180830EC0E8E3F0E0EF
:101910008A81808309C0E5E3F0E08A81808304C086
:10192000E2E3F0E08A8180830F900F900F900F9098
:10193000CF91DF910895DF93CF93CDB7DEB727978F
:101940000FB6F894DEBF0FBECDBF89836A834B8389
:101950008B81813009F06FC08981282F30E03F836F
:101960002E838E819F818130910549F12E813F81A7
:10197000223031052CF48E819F81009761F0CEC01A
:101980002E813F812230310571F18E819F8183301C
:101990009105E9F1C3C0AAE3B0E0EAE3F0E0808199
:1019A000482F8A81282F30E081E090E0022E02C08B
:1019B000880F991F0A94E2F7842B8C93AFC0A7E39A
:1019C000B0E0E7E3F0E08081482F8A81282F30E003
:1019D00081E090E0022E02C0880F991F0A94E2F77E
:1019E000842B8C939BC0A4E3B0E0E4E3F0E080811F
:1019F000482F8A81282F30E081E090E0022E02C03B
:101A0000880F991F0A94E2F7842B8C9387C0A1E377
:101A1000B0E0E1E3F0E08081482F8A81282F30E0B8
:101A200081E090E0022E02C0880F991F0A94E2F72D
:101A3000842B8C9373C08981282F30E03D832C83C5
:101A40008C819D818130910559F12C813D8122301D
:101A500031052CF48C819D81009769F05FC02C8149
:101A60003D812230310589F18C819D818330910542
:101A700009F440C053C0AAE3B0E0EAE3F0E080819B
:101A8000482F8A81282F30E081E090E0022E02C0AA
:101A9000880F991F0A94E2F7809584238C933EC0A7
:101AA000A7E3B0E0E7E3F0E08081482F8A81282FA8
:101AB00030E081E090E0022E02C0880F991F0A9466
:101AC000E2F7809584238C9329C0A4E3B0E0E4E39B
:101AD000F0E08081482F8A81282F30E081E090E07B
:101AE000022E02C0880F991F0A94E2F78095842382
:101AF0008C9314C0A1E3B0E0E1E3F0E08081482FD3
:101B00008A81282F30E081E090E0022E02C0880F09
:101B1000991F0A94E2F7809584238C9327960FB639
:101B2000F894DEBF0FBECDBFCF91DF910895DF9354
:101B3000CF93CDB7DEB727970FB6F894DEBF0FBEB1
:101B4000CDBF89836A834B838B81813009F06FC05D
:101B50008981282F30E03F832E838E819F818130C1
:101B6000910549F12E813F81223031052CF48E817F
:101B70009F81009761F0CEC02E813F8122303105D8
:101B800071F18E819F8183309105E9F1C3C0ABE390
:101B9000B0E0EBE3F0E08081482F8A81282F30E02D
:101BA00081E090E0022E02C0880F991F0A94E2F7AC
:101BB000842B8C93AFC0A8E3B0E0E8E3F0E0808131
:101BC000482F8A81282F30E081E090E0022E02C069
:101BD000880F991F0A94E2F7842B8C939BC0A5E38E
:101BE000B0E0E5E3F0E08081482F8A81282F30E0E3
:101BF00081E090E0022E02C0880F991F0A94E2F75C
:101C0000842B8C9387C0A2E3B0E0E2E3F0E0808114
:101C1000482F8A81282F30E081E090E0022E02C018
:101C2000880F991F0A94E2F7842B8C9373C08981E3
:101C3000282F30E03D832C838C819D81813091055C
:101C400059F12C813D81223031052CF48C819D810C
:101C5000009769F05FC02C813D812230310589F108
:101C60008C819D818330910509F440C053C0ABE362
:101C7000B0E0EBE3F0E08081482F8A81282F30E04C
:101C800081E090E0022E02C0880F991F0A94E2F7CB
:101C9000809584238C933EC0A8E3B0E0E8E3F0E0B5
:101CA0008081482F8A81282F30E081E090E0022E49
:101CB00002C0880F991F0A94E2F7809584238C93C1
:101CC00029C0A5E3B0E0E5E3F0E08081482F8A81F8
:101CD000282F30E081E090E0022E02C0880F991F8B
:101CE0000A94E2F7809584238C9314C0A2E3B0E0B9
:101CF000E2E3F0E08081482F8A81282F30E081E004
:101D000090E0022E02C0880F991F0A94E2F7809596
:101D100084238C9327960FB6F894DEBF0FBECDBFF9
:101D2000CF91DF910895DF93CF9300D000D00F9231
:101D3000CDB7DEB78A836B8319828A81282F30E082
:101D40003D832C834C815D814130510541F18C8173
:101D50009D818230910534F42C813D81211531051E
:101D600061F052C04C815D814230510551F18C814E
:101D70009D8183309105B9F147C0E9E3F0E08081AE
:101D8000282F30E08A81882F90E0A90102C0559564
:101D900047958A95E2F7CA018170898335C0E6E3E9
:101DA000F0E08081282F30E08A81882F90E0A9011F
:101DB00002C0559547958A95E2F7CA0181708983DB
:101DC00023C0E3E3F0E08081282F30E08A81882F70
:101DD00090E0A90102C0559547958A95E2F7CA019E
:101DE0008170898311C0E0E3F0E08081282F30E02A
:101DF0008A81882F90E0A90102C0559547958A9560
:101E0000E2F7CA018170898389810F900F900F904A
:101E10000F900F90CF91DF9108951F920F920FB600
:101E20000F9211248F939F93DF93CF93CDB7DEB79B
:101E300080919D0190919E01019690939E018093C7
:101E40009D01CF91DF919F918F910F900FBE0F90C9
:101E50001F901895DF93CF93CDB7DEB783E060E096
:101E600041E00E949B0C83E066E040E00E949B0CF6
:101E70000E944B0B0E948D07CF91DF910895EF9246
:101E8000FF920F931F93DF93CF93CDB7DEB7A09749
:101E90000FB6F894DEBF0FBECDBF83E060E041E037
:101EA0000E94970D80E090E0A0E2B1E48D8B9E8BC4
:101EB000AF8BB88F6D897E898F89988D2BEA3AEA2E
:101EC0004AE250E40E941F02DC01CB01898B9A8B0D
:101ED000AB8BBC8B69897A898B899C8920E030E047
:101EE00040E85FE30E94250488231CF481E0888B8E
:101EF00091C069897A898B899C8920E030E04FE71D
:101F000053E40E94C50318160CF07BC06D897E89CE
:101F10008F89988D20E030E04AE754E40E9419034D
:101F2000DC01CB018C879D87AE87BF876C857D8563
:101F30008E859F8520E030E04AEF54E40E941F0226
:101F4000DC01CB0188879987AA87BB87688579855B
:101F50008A859B8520E030E040E85FE30E9425040D
:101F600088232CF481E090E09F838E833FC06885B6
:101F700079858A859B8520E03FEF4FE757E40E94F3
:101F8000C50318164CF56C857D858E859F8520E0F0
:101F900030E040E251E40E941F02DC01CB01BC01B1
:101FA000CD010E944900DC01CB019F838E830FC0CD
:101FB00088EC90E09D838C838C819D810197F1F763
:101FC0009D838C838E819F8101979F838E838E81D9
:101FD0009F81009769F724C0688579858A859B85EC
:101FE0000E944900DC01CB019F838E838E819F81FB
:101FF0009B838A838A819B810197F1F79B838A83E4
:102000000FC069897A898B899C890E944900DC010B
:10201000CB01888B8889898389818A95F1F78983A7
:1020200083E060E040E00E94970DEEE4F0E081E4A0
:102030008083E8E5F0E084E28083E8E5F0E08081F9
:10204000882F90E0807290700097B9F380E090E064
:102050000E94EC08EEE4F0E081E08083E8E5F0E047
:1020600084E2808310929E0110929D01E8E5F0E0E9
:102070008081882F90E0807290700097B9F3E6E439
:10208000F0E0808191817C0100E010E080919D0171
:1020900090919E01CC01A0E0B0E02FEF3FEF40E037
:1020A00050E0BC01CD010E948217DC01CB018E0DF6
:1020B0009F1DA01FB11F8D8F9E8FAF8FB8A36D8DF9
:1020C0007E8D8F8D98A10E94A904DC01CB01BC01FB
:1020D000CD0129E23CE349EE53E40E941903DC01FF
:1020E000CB01898F9A8FAB8FBC8F898D9A8DAB8DE9
:1020F000BC8DBC01CD01A0960FB6F894DEBF0FBE1B
:10210000CDBFCF91DF911F910F91FF90EF90089578
:10211000DF93CF93CDB7DEB783E060E041E00E946C
:102120009B0C83E061E041E00E949B0C83E062E055
:1021300041E00E949B0C83E063E041E00E949B0C25
:10214000CF91DF910895DF93CF93CDB7DEB7E897B6
:102150000FB6F894DEBF0FBECDBF83E060E041E074
:102160000E94970D83E061E040E00E94970D83E0BC
:1021700062E040E00E94970D83E063E040E00E944F
:10218000970D80E090E0A0EAB0E48DAB9EABAFABE2
:10219000B8AF6DA97EA98FA998AD20E030E04AEFD5
:1021A00054E40E941F02DC01CB0189AB9AABABABBC
:1021B000BCAB69A97AA98BA99CA920E030E040E8D2
:1021C0005FE30E94250488232CF481E090E098AB23
:1021D0008FA73FC069A97AA98BA99CA920E03FEFEE
:1021E0004FE757E40E94C50318164CF56DA97EA968
:1021F0008FA998AD20E030E040E251E40E941F0238
:10220000DC01CB01BC01CD010E944900DC01CB0106
:1022100098AB8FA70FC088EC90E09EA78DA78DA5E7
:102220009EA50197F1F79EA78DA78FA598A9019765
:1022300098AB8FA78FA598A9009769F714C069A9D3
:102240007AA98BA99CA90E944900DC01CB0198AB1B
:102250008FA78FA598A99CA78BA78BA59CA5019755
:10226000F1F79CA78BA783E060E040E00E94970D08
:1022700083E061E041E00E94970D83E062E040E08E
:102280000E94970D83E063E040E00E94970D80E09C
:1022900090E0A0EAB0E48FA398A7A9A7BAA76FA17E
:1022A00078A589A59AA520E030E04AEF54E40E9481
:1022B0001F02DC01CB018BA39CA3ADA3BEA36BA12A
:1022C0007CA18DA19EA120E030E040E85FE30E9468
:1022D000250488232CF481E090E09AA389A33FC0D1
:1022E0006BA17CA18DA19EA120E03FEF4FE757E4B9
:1022F0000E94C50318164CF56FA178A589A59AA56B
:1023000020E030E040E251E40E941F02DC01CB01FA
:10231000BC01CD010E944900DC01CB019AA389A335
:102320000FC088EC90E098A38F8F8F8D98A10197B4
:10233000F1F798A38F8F89A19AA101979AA389A3F6
:1023400089A19AA1009769F714C06BA17CA18DA106
:102350009EA10E944900DC01CB019AA389A389A117
:102360009AA19E8F8D8F8D8D9E8D0197F1F79E8FF7
:102370008D8F83E060E040E00E94970D83E061E094
:1023800040E00E94970D83E062E041E00E94970DDB
:1023900083E063E040E00E94970D80E090E0A0EAD7
:1023A000B0E4898F9A8FAB8FBC8F698D7A8D8B8DBE
:1023B0009C8D20E030E04AEF54E40E941F02DC01D3
:1023C000CB018D8B9E8BAF8BB88F6D897E898F896A
:1023D000988D20E030E040E85FE30E9425048823E8
:1023E0002CF481E090E09C8B8B8B3FC06D897E89C3
:1023F0008F89988D20E03FEF4FE757E40E94C50397
:1024000018164CF5698D7A8D8B8D9C8D20E030E00F
:1024100040E251E40E941F02DC01CB01BC01CD016E
:102420000E944900DC01CB019C8B8B8B0FC088EC98
:1024300090E09A8B898B89899A890197F1F79A8B19
:10244000898B8B899C8901979C8B8B8B8B899C8931
:10245000009769F714C06D897E898F89988D0E94D5
:102460004900DC01CB019C8B8B8B8B899C89988BE1
:102470008F878F8598890197F1F7988B8F8783E0F5
:1024800060E040E00E94970D83E061E040E00E9440
:10249000970D83E062E040E00E94970D83E063E0E7
:1024A00041E00E94970D80E090E0A0EAB0E48B87C5
:1024B0009C87AD87BE876B857C858D859E8520E05A
:1024C00030E04AEF54E40E941F02DC01CB018F830D
:1024D0009887A987BA876F81788589859A8520E052
:1024E00030E040E85FE30E94250488232CF481E07B
:1024F00090E09E838D833FC06F81788589859A8522
:1025000020E03FEF4FE757E40E94C50318164CF553
:102510006B857C858D859E8520E030E040E251E42E
:102520000E941F02DC01CB01BC01CD010E944900C9
:10253000DC01CB019E838D830FC088EC90E09C83EF
:102540008B838B819C810197F1F79C838B838D8199
:102550009E8101979E838D838D819E81009769F76F
:1025600014C06F81788589859A850E944900DC01B5
:10257000CB019E838D838D819E819A8389838981FE
:102580009A810197F1F79A838983E8960FB6F894B8
:10259000DEBF0FBECDBFCF91DF910895DF93CF9304
:1025A000CDB7DEB7E8970FB6F894DEBF0FBECDBF4C
:1025B00083E063E041E00E94970D83E062E040E049
:1025C0000E94970D83E061E040E00E94970D83E058
:1025D00060E040E00E94970D80E090E0A0EAB0E467
:1025E0008DAB9EABAFABB8AF6DA97EA98FA998ADEF
:1025F00020E030E04AEF54E40E941F02DC01CB01EE
:1026000089AB9AABABABBCAB69A97AA98BA99CA9E6
:1026100020E030E040E85FE30E94250488232CF4AA
:1026200081E090E098AB8FA73FC069A97AA98BA9F8
:102630009CA920E03FEF4FE757E40E94C50318161E
:102640004CF56DA97EA98FA998AD20E030E040E25D
:1026500051E40E941F02DC01CB01BC01CD010E94AC
:102660004900DC01CB0198AB8FA70FC088EC90E04C
:102670009EA78DA78DA59EA50197F1F79EA78DA773
:102680008FA598A9019798AB8FA78FA598A90097B8
:1026900069F714C069A97AA98BA99CA90E9449006D
:1026A000DC01CB0198AB8FA78FA598A99CA78BA71E
:1026B0008BA59CA50197F1F79CA78BA783E063E00E
:1026C00040E00E94970D83E062E041E00E94970D98
:1026D00083E061E040E00E94970D83E060E040E02D
:1026E0000E94970D80E090E0A0EAB0E48FA398A745
:1026F000A9A7BAA76FA178A589A59AA520E030E07F
:102700004AEF54E40E941F02DC01CB018BA39CA37F
:10271000ADA3BEA36BA17CA18DA19EA120E030E062
:1027200040E85FE30E94250488232CF481E090E0D8
:102730009AA389A33FC06BA17CA18DA19EA120E09B
:102740003FEF4FE757E40E94C50318164CF56FA101
:1027500078A589A59AA520E030E040E251E40E94E6
:102760001F02DC01CB01BC01CD010E944900DC014C
:10277000CB019AA389A30FC088EC90E098A38F8F18
:102780008F8D98A10197F1F798A38F8F89A19AA1B6
:1027900001979AA389A389A19AA1009769F714C008
:1027A0006BA17CA18DA19EA10E944900DC01CB01FF
:1027B0009AA389A389A19AA19E8F8D8F8D8D9E8DBD
:1027C0000197F1F79E8F8D8F83E063E040E00E94D8
:1027D000970D83E062E040E00E94970D83E061E0A6
:1027E00041E00E94970D83E060E040E00E94970D79
:1027F00080E090E0A0EAB0E4898F9A8FAB8FBC8F25
:10280000698D7A8D8B8D9C8D20E030E04AEF54E409
:102810000E941F02DC01CB018D8B9E8BAF8BB88F8A
:102820006D897E898F89988D20E030E040E85FE3F4
:102830000E94250488232CF481E090E09C8B8B8BF4
:102840003FC06D897E898F89988D20E03FEF4FE7EB
:1028500057E40E94C50318164CF5698D7A8D8B8D4F
:102860009C8D20E030E040E251E40E941F02DC0138
:10287000CB01BC01CD010E944900DC01CB019C8B46
:102880008B8B0FC088EC90E09A8B898B89899A8911
:102890000197F1F79A8B898B8B899C8901979C8B87
:1028A0008B8B8B899C89009769F714C06D897E8911
:1028B0008F89988D0E944900DC01CB019C8B8B8B0A
:1028C0008B899C89988B8F878F8598890197F1F7E1
:1028D000988B8F8783E063E040E00E94970D83E050
:1028E00062E040E00E94970D83E061E040E00E94DA
:1028F000970D83E060E041E00E94970D80E090E05A
:10290000A0EAB0E48B879C87AD87BE876B857C850A
:102910008D859E8520E030E04AEF54E40E941F023E
:10292000DC01CB018F839887A987BA876F8178856F
:1029300089859A8520E030E040E85FE30E94250425
:1029400088232CF481E090E09E838D833FC06F81CB
:10295000788589859A8520E03FEF4FE757E40E940C
:10296000C50318164CF56B857C858D859E8520E00A
:1029700030E040E251E40E941F02DC01CB01BC01C7
:10298000CD010E944900DC01CB019E838D830FC0E5
:1029900088EC90E09C838B838B819C810197F1F77D
:1029A0009C838B838D819E8101979E838D838D81F6
:1029B0009E81009769F714C06F81788589859A8513
:1029C0000E944900DC01CB019E838D838D819E8115
:1029D0009A83898389819A810197F1F79A83898300
:1029E000E8960FB6F894DEBF0FBECDBFCF91DF9152
:1029F0000895DF93CF93CDB7DEB7A1E3B0E0E1E375
:102A0000F0E0808180628C93EFE4F0E082E88083E4
:102A1000EEE4F0E08AE18083E6E4F0E080E29EE428
:102A200091838083CF91DF910895DF93CF9300D07E
:102A300000D0CDB7DEB79C838B838B819C81CC018A
:102A4000A0E0B0E020ED37E040E050E0BC01CD0177
:102A50000E948217DC01CB0124EB30E040E050E023
:102A6000BC01CD010E94B417DA01C9018C509E4F00
:102A70009A83898389819A8121E0843F920720F497
:102A800084EF91E09A83898389819A8129E0853C4A
:102A9000920720F084EC99E09A838983EAE4F0E0DD
:102AA00089819A81918380830F900F900F900F906E
:102AB000CF91DF910895DF93CF93CDB7DEB781E05B
:102AC00064E041E00E949B0C81E065E041E00E94EF
:102AD0009B0C81E066E041E00E949B0C81E067E096
:102AE00041E00E949B0C81E063E041E00E949B0C6E
:102AF00081E062E041E00E949B0C0E94AF0A8FE1FE
:102B00009EE462E00E94FE08CF91DF910895DF937A
:102B1000CF93CDB7DEB728970FB6F894DEBF0FBEC0
:102B2000CDBF8D836E838E81482F50E0CA019C01FA
:102B3000220F331FC9019695982F8827979587955F
:102B4000821B930B840F951F24E630E0B9010E948D
:102B5000A117CB019C838B838E81282F30E08FE1DE
:102B60009EE4AC01249FC001259F900D349F900DE1
:102B7000112424E630E0B9010E94A117CB019A8309
:102B800089838D81282F30E038872F834F815885A6
:102B90004230510509F45BC08F81988583309105DF
:102BA0005CF42F8138852115310591F04F815885CE
:102BB0004130510511F174C08F81988583309105A2
:102BC00089F12F8138852430310509F455C068C05A
:102BD00081E064E041E00E94970D81E065E040E023
:102BE0000E94970D81E066E041E00E94970D81E030
:102BF00067E040E00E94970D53C081E064E040E050
:102C00000E94970D81E065E041E00E94970D81E010
:102C100066E040E00E94970D81E067E041E00E949D
:102C2000970D3EC081E064E041E00E94970D81E095
:102C300065E040E00E94970D81E066E040E00E9480
:102C4000970D81E067E040E00E94970D29C081E088
:102C500064E040E00E94970D81E065E040E00E9462
:102C6000970D81E066E041E00E94970D81E067E00A
:102C700040E00E94970D14C081E064E040E00E94B3
:102C8000970D81E065E040E00E94970D81E066E0ED
:102C900040E00E94970D81E067E040E00E94970DC0
:102CA0008B810E94EC0A29813A8180E0B9010E945F
:102CB0009B0928960FB6F894DEBF0FBECDBFCF910B
:102CC000DF9108951F920F920FB60F9211248F93E8
:102CD0009F93DF93CF93CDB7DEB78091680191E0EA
:102CE000892780936801CF91DF919F918F910F90F9
:102CF0000FBE0F901F901895DF93CF93CDB7DEB71F
:102D000027970FB6F894DEBF0FBECDBF0E941707FE
:102D1000AAE3B0E0EAE3F0E0808183608C930E9454
:102D20005B150E94F9140E942A0F0E94670B0E94F3
:102D3000370789838981863461F5ABE3B0E0EBE343
:102D4000F0E0808182608C93ABE3B0E0EBE3F0E0F5
:102D500080818E7F8C93ABE3B0E0EBE3F0E0808189
:102D60008B7F8C93ABE3B0E0EBE3F0E08081877F77
:102D70008C93ABE3B0E0EBE3F0E080818F7E8C934B
:102D800080E066E40E94871586E490E00E94570781
:102D9000CECF8981823461F5ABE3B0E0EBE3F0E0C4
:102DA000808184608C93ABE3B0E0EBE3F0E0808162
:102DB0008E7F8C93ABE3B0E0EBE3F0E080818D7F1E
:102DC0008C93ABE3B0E0EBE3F0E08081877F8C9302
:102DD000ABE3B0E0EBE3F0E080818F7E8C9381E0A9
:102DE00066E40E94871582E490E00E9457079FCF17
:102DF0008981823561F5ABE3B0E0EBE3F0E08081FF
:102E000088608C93ABE3B0E0EBE3F0E080818E7FF1
:102E10008C93ABE3B0E0EBE3F0E080818D7F8C93AB
:102E2000ABE3B0E0EBE3F0E080818B7F8C93ABE32E
:102E3000B0E0EBE3F0E080818F7E8C9383E066E48A
:102E40000E94871582E590E00E94570770CF898124
:102E50008C3461F5ABE3B0E0EBE3F0E080818061BE
:102E60008C93ABE3B0E0EBE3F0E080818E7F8C935A
:102E7000ABE3B0E0EBE3F0E080818D7F8C93ABE3DC
:102E8000B0E0EBE3F0E080818B7F8C93ABE3B0E0CC
:102E9000EBE3F0E08081877F8C9382E066E40E9420
:102EA00087158CE490E00E94570741CFABE3B0E078
:102EB000EBE3F0E0808181608C93ABE3B0E0EBE387
:102EC000F0E080818D7F8C93ABE3B0E0EBE3F0E04A
:102ED00080818B7F8C93ABE3B0E0EBE3F0E080810B
:102EE000877F8C93ABE3B0E0EBE3F0E080818F7EF3
:102EF0008C9384E060E00E94871583E590E00E9457
:102F0000570715CF629FD001739FF001829FE00D9C
:102F1000F11D649FE00DF11D929FF00D839FF00D58
:102F2000749FF00D659FF00D9927729FB00DE11D04
:102F3000F91F639FB00DE11DF91FBD01CF011124E1
:102F4000089597FB092E07260AD077FD04D02ED0CE
:102F500006D000201AF4709561957F4F0895F6F71A
:102F6000909581959F4F0895A1E21A2EAA1BBB1B35
:102F7000FD010DC0AA1FBB1FEE1FFF1FA217B30745
:102F8000E407F50720F0A21BB30BE40BF50B661F5B
:102F9000771F881F991F1A9469F76095709580951F
:102FA00090959B01AC01BD01CF010895AA1BBB1BED
:102FB00051E107C0AA1FBB1FA617B70710F0A61B39
:102FC000B70B881F991F5A95A9F780959095BC015A
:102FD000CD0108952F923F924F925F926F927F9210
:102FE0008F929F92AF92BF92CF92DF92EF92FF9219
:102FF0000F931F93CF93DF93CDB7DEB7CA1BDB0BC5
:103000000FB6F894DEBF0FBECDBF09942A88398869
:1030100048885F846E847D848C849B84AA84B98470
:10302000C884DF80EE80FD800C811B81AA81B9817C
:10303000CE0FD11D0FB6F894DEBF0FBECDBFED0190
:063040000895F894FFCF93
:103046000000000000000000000102020303030369
:103056000404040404040404050505050505050522
:103066000505050505050505060606060606060602
:1030760006060606060606060606060606060606EA
:1030860006060606060606060707070707070707D2
:1030960007070707070707070707070707070707BA
:1030A60007070707070707070707070707070707AA
:1030B600070707070707070707070707070707079A
:1030C6000707070707070707080808080808080882
:1030D600080808080808080808080808080808086A
:1030E600080808080808080808080808080808085A
:1030F600080808080808080808080808080808084A
:103106000808080808080808080808080808080839
:103116000808080808080808080808080808080829
:103126000808080808080808080808080808080819
:103136000808080808080808080808080808080809
:0A314600080808080808080801003E
:00000001FF
