:100000000C94A7000C94C4000C94C4000C94C4007D
:100010000C94C4000C94C4000C94C4000C94C40050
:100020000C94C4000C94CE2E0C94C4000C94C40008
:100030000C94C4000C94C4000C94C4000C94C40030
:100040000C94C4000C94C4000C94C4000C94C40020
:100050000C94C40000407A10F35A00A0724E1809A4
:100060000010A5D4E80000E87648170000E40B541F
:10007000020000CA9A3B000000E1F50500008096EE
:100080009800000040420F000000A0860100000020
:10009000102700000000E8030000000064000000DA
:1000A00000000A00000000000100000000002C76A3
:1000B000D888DC674F0823DFC1DFAE59E1B1B796BE
:1000C000E5E3E453C63AE651997696E8E6C284261B
:1000D000EB898C9B62ED407C6FFCEFBC9C9F40F2F7
:1000E000BAA56FA5F490055A2AF75C936B6CF96773
:1000F0006DC11BFCE0E40D47FEF520E6B500D0ED38
:10010000902E0300943577050080841E080000209F
:100110004E0A000000C80C333333330F986E12833D
:100120001141EF8D2114893BE65516CFFEE6DB1811
:10013000D1844B381BF77C1D901DA4BBE4242032D6
:1001400084725E228100C9F124ECA1E53D271124CF
:100150001FBECFE5D8E0DEBFCDBF11E0A0E6B0E026
:10016000ECE8F7E602C005900D92AC39B107D9F77B
:1001700011E0ACE9B1E001C01D92AE39B107E1F781
:100180000E94EB2E0C94C4330C940000EF92FF926B
:100190000F931F937B018C0120E030E040E05FE48F
:1001A0000E94720488238CF0C801B70120E030E07F
:1001B00040E05FE40E943E020E9430059B01AC01DA
:1001C000205030404040504806C0C801B7010E944E
:1001D00030059B01AC01B901CA011F910F91FF903D
:1001E000EF900895A0E0B0E0E8EFF0E00C9420314B
:1001F000DC012B01FA019C91923008F439C1EB012A
:100200008881823008F433C1943069F4843009F075
:100210002FC111969C9111978981981709F428C1D3
:10022000AAE7B0E025C1843009F421C18230A9F4E5
:10023000923009F01DC19A01AD0188E0EA010990F0
:10024000AE01E90109929E018150C1F7E201898165
:1002500011969C918923818308C1923009F407C1CA
:1002600012962D903C901397EB018A819B811496F6
:10027000AD90BD90CD90DC901797EC80FD800E8105
:100280001F819101281B390BB90137FF04C0662774
:100290007727621B730B603271050CF061C0121678
:1002A00013066CF537014801062E04C09694879416
:1002B000779467940A94D2F721E030E040E050E070
:1002C00004C0220F331F441F551F6A95D2F72150D7
:1002D0003040404050402E213F21402351232115E2
:1002E00031054105510521F021E030E040E050E0CA
:1002F00079018A01E628F728082919293CC0232B0F
:10030000D1F1260E371E35014601062E04C0969403
:100310008794779467940A94D2F721E030E040E024
:1003200050E004C0220F331F441F551F6A95D2F7B7
:1003300021503040404050402A213B214C215D213A
:10034000211531054105510521F021E030E040E063
:1003500050E059016A01A628B728C828D9280BC03F
:10036000821593052CF01C01AA24BB24650103C04F
:10037000EE24FF24870111969C91D20111968C9155
:10038000981709F445C0992339F0A80197012A1953
:100390003B094C095D0906C0A60195012E193F09CC
:1003A000400B510B57FD08C01182338222822483F7
:1003B0003583468357831DC081E081833382228247
:1003C00088279927DC01821B930BA40BB50B848330
:1003D0009583A683B7830DC0220F331F441F551F7B
:1003E0002483358346835783828193810197938346
:1003F00082832481358146815781DA01C9010197C1
:10040000A109B1098F5F9F4FAF4FBF4328F30BC0C6
:10041000918333822282EA0CFB1C0C1D1D1DE48299
:10042000F5820683178383E08083248135814681AA
:10043000578157FF1AC0C901AA2797FDA095BA2F67
:1004400081709070A070B07056954795379527953C
:10045000822B932BA42BB52B84839583A683B78300
:1004600082819381019693838283DF0101C0D2014F
:10047000CD01CDB7DEB7E2E10C943C31A0E2B0E0B3
:10048000E4E4F2E00C942C3169837A838B839C83BF
:100490002D833E834F835887E9E0EE2EF12CEC0E3E
:1004A000FD1ECE010196B7010E94A8068E010F5EC7
:1004B0001F4FCE010596B8010E94A8068A8991E0D7
:1004C00089278A8BC701B801AE01475E5F4F0E9442
:1004D000F2000E94D305A096E6E00C944831A0E219
:1004E000B0E0E5E7F2E00C942C3169837A838B83EA
:1004F0009C832D833E834F835887F9E0EF2EF12CA8
:10050000EC0EFD1ECE010196B7010E94A8068E01D9
:100510000F5E1F4FCE010596B8010E94A806C701C5
:10052000B801AE01475E5F4F0E94F2000E94D30502
:10053000A096E6E00C944831A0E2B0E0E2EAF2E0F6
:100540000C94203169837A838B839C832D833E8333
:100550004F835887CE010196BE01675F7F4F0E948F
:10056000A806CE010596BE016F5E7F4F0E94A806C9
:100570009985923088F089898230C8F0943019F4D6
:10058000823051F404C0843029F4923081F48AE737
:1005900090E0C6C0923049F420E09A858A89981389
:1005A00021E02A87CE010996BBC0823049F420E0C1
:1005B0009A858A89981321E02A8BCE014196B0C092
:1005C0002D843E844F8458886D887E888F88988CCF
:1005D000EE24FF248701AA24BB24650140E050E0FB
:1005E00060E070E0E0E0F0E0C10181709070892B84
:1005F000E9F0E60CF71C081D191D9A01AB012A0D44
:100600003B1D4C1D5D1D80E090E0A0E0B0E0E614D5
:10061000F7040805190520F481E090E0A0E0B0E0BF
:10062000BA01A901480F591F6A1F7B1FAA0CBB1CE6
:10063000CC1CDD1C97FE08C081E090E0A0E0B0E09B
:10064000A82AB92ACA2ADB2A3196E032F10549F0F4
:10065000660C771C881C991C5694479437942794F1
:10066000C3CFFA85EA892B893C898B859C85280F25
:10067000391F2E5F3F4F17C0CA0181709070892BC0
:1006800061F016950795F794E79480E090E0A0E07C
:10069000B0E8E82AF92A0A2B1B2B7695679557951F
:1006A00047952F5F3F4F77FDE7CF0CC0440F551F95
:1006B000661F771F17FD4160EE0CFF1C001F111F06
:1006C00021503040403090E0590790E0690790E4B5
:1006D000790760F32B8F3C8FDB01CA018F77907015
:1006E000A070B07080349105A105B10561F447FD9B
:1006F0000AC0E114F1040105110529F0405C5F4FC7
:100700006F4F7F4F40781A8EFE1711F081E08A8F6D
:100710004D8F5E8F6F8F78A383E0898FCE014996CE
:100720000E94D305A096E2E10C943C31A8E1B0E030
:10073000ECE9F3E00C94283169837A838B839C8302
:100740002D833E834F835887B9E0EB2EF12CEC0EBE
:10075000FD1ECE010196B7010E94A8068E010F5E14
:100760001F4FCE010596B8010E94A80629852230A8
:1007700008F47EC03989323010F4B8017CC08A8513
:100780009A8989278A87243011F0223031F423177F
:1007900009F06EC06AE770E06EC0343039F41D862F
:1007A0001E861F86188A1C861B8604C0323021F4E0
:1007B00084E08987B7015FC02B853C858B899C8944
:1007C000281B390B3C872B87ED84FE840F85188905
:1007D000AD88BE88CF88D88CEA14FB040C051D05B3
:1007E00040F4EE0CFF1C001F111F215030403C87CD
:1007F0002B8720E030E040E050E080E090E0A0E097
:10080000B0E460E070E0EA14FB040C051D0540F064
:10081000282B392B4A2B5B2BEA18FB080C091D09E6
:10082000B695A79597958795EE0CFF1C001F111F95
:100830006F5F7F4F6F31710531F7DA01C9018F7733
:100840009070A070B07080349105A105B10561F47D
:1008500027FD0AC0E114F1040105110529F0205C0F
:100860003F4F4F4F5F4F20782D873E874F87588BE4
:10087000BE01675F7F4FCB010E94D3056896EAE017
:100880000C944431A8E1B0E0E8E4F4E00C942C319D
:1008900069837A838B839C832D833E834F83588720
:1008A00089E0E82EF12CEC0EFD1ECE010196B70179
:1008B0000E94A8068E010F5E1F4FCE010596B8015B
:1008C0000E94A8068985823040F08989823028F00C
:1008D000C701B8010E94200701C08FEF6896E6E0CB
:1008E0000C944831A8E1B0E0E8E7F4E00C942C3136
:1008F00069837A838B839C832D833E834F835887C0
:1009000089E0E82EF12CEC0EFD1ECE010196B70118
:100910000E94A8068E010F5E1F4FCE010596B801FA
:100920000E94A8068985823040F08989823028F0AB
:10093000C701B8010E94200701C08FEF6896E6E06A
:100940000C944831A8E1B0E0E8EAF4E00C942C31D2
:1009500069837A838B839C832D833E834F8358875F
:1009600089E0E82EF12CEC0EFD1ECE010196B701B8
:100970000E94A8068E010F5E1F4FCE010596B8019A
:100980000E94A8068985823040F08989823028F04B
:10099000C701B8010E94200701C081E06896E6E027
:1009A0000C944831A8E0B0E0E8EDF4E00C94293173
:1009B0009B01AC0183E08983DA01C9018827B7FD77
:1009C00083959927AA27BB27B82E21153105410504
:1009D000510519F482E089833AC08823A9F02030B8
:1009E00080E0380780E0480780E8580729F460E095
:1009F00070E080E09FEC30C0EE24FF248701E21A13
:100A0000F30A040B150B02C079018A018EE1C82E8E
:100A1000D12CDC82CB82ED82FE820F831887C80145
:100A2000B7010E94840501971816190684F4082E50
:100A300004C0EE0CFF1C001F111F0A94D2F7ED82B8
:100A4000FE820F831887C81AD90ADC82CB82BA8249
:100A5000CE0101960E94D3052896E9E00C94453119
:100A6000ACE0B0E0E6E3F5E00C94303169837A83E2
:100A70008B839C83CE010196BE016B5F7F4F0E94EA
:100A8000A8068D81823061F1823050F1843021F4EA
:100A90008E81882351F12EC02F81388537FD20C0EB
:100AA0006E812F3131051CF06623F9F023C08EE1F1
:100AB00090E0821B930B29853A854B855C8504C0A9
:100AC00056954795379527958A95D2F76623B1F0C5
:100AD00050954095309521953F4F4F4F5F4F0EC039
:100AE00020E030E040E050E009C02FEF3FEF4FEF53
:100AF0005FE704C020E030E040E050E8B901CA01FF
:100B00002C96E2E00C944C31EF92FF920F931F93DE
:100B10007B018C0180E0E81680E0F80681E00807A0
:100B200080E0180788F48FEFE816F104010511053D
:100B300031F028F088E090E0A0E0B0E017C080E05D
:100B400090E0A0E0B0E012C080E0E81680E0F80697
:100B500080E0080781E0180728F088E190E0A0E035
:100B6000B0E004C080E190E0A0E0B0E020E230E03E
:100B700040E050E0281B390B4A0B5B0B04C0169574
:100B80000795F794E7948A95D2F7F701EE57FF4F50
:100B90008081281B310941095109C9011F910F9119
:100BA000FF90EF900895DF92EF92FF920F931F93C3
:100BB000FC01E480F58006811781D180808182303C
:100BC00048F480E090E0A0E1B0E0E82AF92A0A2B9E
:100BD0001B2BA5C0843009F49FC0823021F4EE2481
:100BE000FF24870105C0E114F1040105110519F482
:100BF000E0E0F0E096C0628173819FEF6238790790
:100C00000CF05BC022E83FEF261B370B2A31310581
:100C10002CF020E030E040E050E02AC0B801A7010D
:100C2000022E04C076956795579547950A94D2F79A
:100C300081E090E0A0E0B0E004C0880F991FAA1FF7
:100C4000BB1F2A95D2F70197A109B1098E219F21D7
:100C5000A023B1230097A105B10521F081E090E028
:100C6000A0E0B0E09A01AB01282B392B4A2B5B2B7B
:100C7000DA01C9018F779070A070B070803491054F
:100C8000A105B10539F427FF09C0205C3F4F4F4F44
:100C90005F4F04C0215C3F4F4F4F5F4FE0E0F0E0FB
:100CA0002030A0E03A07A0E04A07A0E45A0710F07D
:100CB000E1E0F0E079018A0127C06038710564F550
:100CC000FB01E158FF4FD801C7018F779070A070EA
:100CD000B07080349105A105B10539F4E7FE0DC06F
:100CE00080E490E0A0E0B0E004C08FE390E0A0E0FA
:100CF000B0E0E80EF91E0A1F1B1F17FF05C016956E
:100D00000795F794E794319687E016950795F79441
:100D1000E7948A95D1F705C0EE24FF248701EFEF11
:100D2000F0E06E2F679566276795902F9F77D79491
:100D3000DD24D7948E2F8695492F462B582F5D2979
:100D4000B701CA011F910F91FF90EF90DF900895B6
:100D5000FC01DB01408151812281622F6F7770E0BD
:100D6000221F2227221F9381892F880F822B282F51
:100D700030E0991F9927991F11969C93119721157F
:100D80003105A9F5411551056105710511F482E0A0
:100D900037C082E89FEF13969C938E9312979A0127
:100DA000AB0167E0220F331F441F551F6A95D1F72F
:100DB00083E08C930DC0220F331F441F551F1296E2
:100DC0008D919C911397019713969C938E931297F4
:100DD000203080E0380780E0480780E4580758F367
:100DE00014962D933D934D935C93179708952F3F41
:100DF000310579F4411551056105710519F484E057
:100E00008C93089564FF03C081E08C9312C01C9200
:100E100010C02F57304013963C932E93129783E0C7
:100E20008C9387E0440F551F661F771F8A95D1F773
:100E3000706414964D935D936D937C93179708950A
:100E40001F93DC01FB019C91923008F447C0808124
:100E5000823008F443C0943051F411961C918430D0
:100E600099F58181682F70E0611B71093FC0843062
:100E700021F0923031F48230B9F18181882389F1F7
:100E80002DC011961C9111978230F1F081811817B5
:100E9000D9F412962D913C911397828193818217F8
:100EA000930794F028173907BCF014968D919D9103
:100EB0000D90BC91A02D2481358146815781281742
:100EC00039074A075B0718F4112341F00AC082175B
:100ED0009307A407B50740F4112319F061E070E00F
:100EE00005C06FEF7FEF02C060E070E0CB011F91A3
:100EF0000895DF93CF93CDB7DEB7A7E2B0E0E7E286
:100F0000F0E080818F778C93A7E2B0E0E7E2F0E039
:100F1000808180648C93A7E2B0E0E7E2F0E080811A
:100F20008F7D8C93A6E2B0E0E6E2F0E08081816004
:100F30008C93A6E2B0E0E6E2F0E0808182608C93E0
:100F4000A6E2B0E0E6E2F0E0808184608C93A6E265
:100F5000B0E0E6E2F0E0808180688C93CF91DF9191
:100F60000895DF93CF930F92CDB7DEB78983A7E2C1
:100F7000B0E0E7E2F0E0808180778C93A7E2B0E018
:100F8000E7E2F0E090818981892B8C93A6E2B0E0C2
:100F9000E6E2F0E0808180648C93E6E2F0E080811C
:100FA00082958F70882F90E0817090700097A9F3E0
:100FB000A6E2B0E0E6E2F0E0808180618C93E4E2BA
:100FC000F0E0808191810F90CF91DF910895DF93C0
:100FD000CF9300D000D0CDB7DEB789836A838981F3
:100FE000282F30E03C832B838B819C8181309105BD
:100FF000D1F02B813C81223031052CF48B819C81F6
:10100000009761F01EC02B813C812230310581F0B8
:101010008B819C818330910581F013C0EAE3F0E07D
:101020008A8180830EC0E7E3F0E08A81808309C073
:10103000E4E3F0E08A81808304C0E1E3F0E08A81A8
:1010400080830F900F900F900F90CF91DF910895B4
:10105000DF93CF9300D000D0CDB7DEB789836A830A
:101060008981282F30E03C832B838B819C818130C8
:101070009105D1F02B813C81223031052CF48B81FC
:101080009C81009761F01EC02B813C81223031058C
:1010900081F08B819C818330910581F013C0EBE35B
:1010A000F0E08A8180830EC0E8E3F0E08A818083EB
:1010B00009C0E5E3F0E08A81808304C0E2E3F0E068
:1010C0008A8180830F900F900F900F90CF91DF91C6
:1010D0000895DF93CF9300D000D00F92CDB7DEB745
:1010E0008A836B8319828A81282F30E03D832C8389
:1010F0004C815D814130510541F18C819D8182306F
:10110000910534F42C813D812115310561F052C0E7
:101110004C815D814230510551F18C819D8183303C
:101120009105B9F147C0E9E3F0E08081282F30E074
:101130008B81882F90E0A90102C0559547958A952B
:10114000E2F7CA018170898335C0E6E3F0E080816F
:10115000282F30E08B81882F90E0A90102C055959F
:1011600047958A95E2F7CA018170898323C0E3E33A
:10117000F0E08081282F30E08B81882F90E0A9015A
:1011800002C0559547958A95E2F7CA018170898317
:1011900011C0E0E3F0E08081282F30E08B81882FC0
:1011A00090E0A90102C0559547958A95E2F7CA01DA
:1011B0008170898389810F900F900F900F900F900D
:1011C000CF91DF910895DF93CF93CDB7DEB7279707
:1011D0000FB6F894DEBF0FBECDBF89836A834B8301
:1011E0008B81813009F06FC08981282F30E03F83E7
:1011F0002E838E819F818130910549F12E813F811F
:10120000223031052CF48E819F81009761F0CEC091
:101210002E813F812230310571F18E819F81833093
:101220009105E9F1C3C0ABE3B0E0EBE3F0E080810E
:10123000482F8A81282F30E081E090E0022E02C002
:10124000880F991F0A94E2F7842B8C93AFC0A8E310
:10125000B0E0E8E3F0E08081482F8A81282F30E079
:1012600081E090E0022E02C0880F991F0A94E2F7F5
:10127000842B8C939BC0A5E3B0E0E5E3F0E0808194
:10128000482F8A81282F30E081E090E0022E02C0B2
:10129000880F991F0A94E2F7842B8C9387C0A2E3EE
:1012A000B0E0E2E3F0E08081482F8A81282F30E02F
:1012B00081E090E0022E02C0880F991F0A94E2F7A5
:1012C000842B8C9373C08981282F30E03D832C833D
:1012D0008C819D818130910559F12C813D81223095
:1012E00031052CF48C819D81009769F05FC02C81C1
:1012F0003D812230310589F18C819D8183309105BA
:1013000009F440C053C0ABE3B0E0EBE3F0E0808110
:10131000482F8A81282F30E081E090E0022E02C021
:10132000880F991F0A94E2F7809584238C933EC01E
:10133000A8E3B0E0E8E3F0E08081482F8A81282F1D
:1013400030E081E090E0022E02C0880F991F0A94DD
:10135000E2F7809584238C9329C0A5E3B0E0E5E310
:10136000F0E08081482F8A81282F30E081E090E0F2
:10137000022E02C0880F991F0A94E2F780958423F9
:101380008C9314C0A2E3B0E0E2E3F0E08081482F48
:101390008A81282F30E081E090E0022E02C0880F81
:1013A000991F0A94E2F7809584238C9327960FB6B1
:1013B000F894DEBF0FBECDBFCF91DF910895DF93CC
:1013C000CF93CDB7DEB727970FB6F894DEBF0FBE29
:1013D000CDBF89836A834B838B81813009F06FC0D5
:1013E0008981282F30E03F832E838E819F81813039
:1013F000910549F12E813F81223031052CF48E81F7
:101400009F81009761F0CEC02E813F81223031054F
:1014100071F18E819F8183309105E9F1C3C0AAE308
:10142000B0E0EAE3F0E08081482F8A81282F30E0A5
:1014300081E090E0022E02C0880F991F0A94E2F723
:10144000842B8C93AFC0A7E3B0E0E7E3F0E08081AA
:10145000482F8A81282F30E081E090E0022E02C0E0
:10146000880F991F0A94E2F7842B8C939BC0A4E306
:10147000B0E0E4E3F0E08081482F8A81282F30E05B
:1014800081E090E0022E02C0880F991F0A94E2F7D3
:10149000842B8C9387C0A1E3B0E0E1E3F0E080818E
:1014A000482F8A81282F30E081E090E0022E02C090
:1014B000880F991F0A94E2F7842B8C9373C089815B
:1014C000282F30E03D832C838C819D8181309105D4
:1014D00059F12C813D81223031052CF48C819D8184
:1014E000009769F05FC02C813D812230310589F180
:1014F0008C819D818330910509F440C053C0AAE3DB
:10150000B0E0EAE3F0E08081482F8A81282F30E0C4
:1015100081E090E0022E02C0880F991F0A94E2F742
:10152000809584238C933EC0A7E3B0E0E7E3F0E02E
:101530008081482F8A81282F30E081E090E0022EC0
:1015400002C0880F991F0A94E2F7809584238C9338
:1015500029C0A4E3B0E0E4E3F0E08081482F8A8171
:10156000282F30E081E090E0022E02C0880F991F02
:101570000A94E2F7809584238C9314C0A1E3B0E031
:10158000E1E3F0E08081482F8A81282F30E081E07C
:1015900090E0022E02C0880F991F0A94E2F780950E
:1015A00084238C9327960FB6F894DEBF0FBECDBF71
:1015B000CF91DF910895DF93CF93CDB7DEB70E942F
:1015C0002D0BA5E5B0E0E5E5F0E0808182608C932D
:1015D000A5E5B0E0E5E5F0E080818E7F8C93A5E5A0
:1015E000B0E0E5E5F0E0808188608C93A5E5B0E0AF
:1015F000E5E5F0E080818B7F8C93ABE5B0E0EBE537
:10160000F0E0808180648C93ABE5B0E0EBE5F0E046
:10161000808180688C9383E063E040E00E94DF0972
:1016200083E063E041E00E94E308CF91DF910895F9
:10163000DF93CF93CDB7DEB7CF91DF910895DF93DE
:10164000CF93CDB7DEB7AFE5B0E0EFE5F0E0808156
:101650008F778C93CF91DF910895DF93CF93CDB7A0
:10166000DEB7AFE5B0E0EFE5F0E0808180688C9315
:10167000CF91DF910895DF93CF930F92CDB7DEB76F
:101680008FEF80939A01198233C08981882F90E06F
:10169000FC01EE56FE4F908181E0692F40E00E94F0
:1016A000DF098981882F90E0FC01EE56FE4F908182
:1016B00081E0692F41E00E94E3088981882F90E052
:1016C000FC01EA56FE4F908181E0692F41E00E94C3
:1016D000DF098981882F90E0FC01EA56FE4F908156
:1016E00081E0692F41E00E94E30889818F5F89834F
:1016F0008981843050F20F90CF91DF910895DF936C
:10170000CF9300D000D0CDB7DEB71B8248C08B810D
:10171000882F90E0FC01EA56FE4F908181E0692F0E
:1017200040E00E94E3081A8228C08A81882F90E056
:10173000FC01EE56FE4F908181E0692F0E946908FE
:10174000898389818823B1F48A81482F50E08B8175
:10175000282F30E0CA01880F991F880F991F820F28
:10176000931FFC01EE57FE4F808180939A018A817E
:101770008C831BC08A818F5F8A838A818430A8F220
:101780008B81882F90E0FC01EA56FE4F908181E02A
:10179000692F41E00E94E3088B818F5F8B838B81EF
:1017A000843008F4B4CF8FEF8C838C810F900F902E
:1017B0000F900F90CF91DF910895DF93CF930F9209
:1017C000CDB7DEB70E943B0B0E947F0B90919B012F
:1017D00080919A01981719F48FEF898312C0809134
:1017E0009B018F3F41F480919A0180939B018091EE
:1017F0009A01898306C080919A0180939B018FEFA3
:10180000898389810F90CF91DF910895DF93CF93E2
:10181000CDB7DEB763970FB6F894DEBF0FBECDBF6E
:101820000E943B0B0E947F0B8B8B1F86188A198AA4
:101830001A8A7EC080E090E0AAE7B4E48B879C8798
:10184000AD87BE876B857C858D859E8520E030E0E9
:101850004AEF54E40E949C02DC01CB018F839887FD
:10186000A987BA876F81788589859A8520E030E0DD
:1018700040E85FE30E94A20488232CF481E090E01A
:101880009E838D833FC06F81788589859A8520E00E
:101890003FEF4FE757E40E94420418164CF56B8562
:1018A0007C858D859E8520E030E040E251E40E94F9
:1018B0009C02DC01CB01BC01CD010E94C600DC0111
:1018C000CB019E838D830FC088EC90E09C838B833B
:1018D0008B819C810197F1F79C838B838D819E8105
:1018E00001979E838D838D819E81009769F714C037
:1018F0006F81788589859A850E94C600DC01CB01BD
:101900009E838D838D819E819A83898389819A812B
:101910000197F1F79A8389838F859889A989BA8974
:1019200088519C4FAF4FBF4F8F87988BA98BBA8B35
:101930008B89882F90E0FC01EE56FE4F908181E06C
:10194000692F0E946908882309F474CF8F859889CC
:10195000A989BA89BC01CD0163960FB6F894DEBFA0
:101960000FBECDBFCF91DF9108950F931F93DF93EB
:10197000CF93CDB7DEB7C05BD0400FB6F894DEBFD3
:101980000FBECDBF81E06FEF0E94E70782E060E00D
:1019900041E00E94DF0982E061E041E00E94DF094E
:1019A00082E062E041E00E94DF09FE01E355FF4F63
:1019B00080E090E0A0E2B2E480839183A283B383CD
:1019C0008E0107551F4FFE01E355FF4F6081718166
:1019D0008281938120E030E04AEF54E40E949C022F
:1019E000DC01CB01F80180839183A283B383FE01E4
:1019F000E755FF4F608171818281938120E030E063
:101A000040E85FE30E94A204882344F4FE01E95504
:101A1000FF4F81E090E09183808364C0FE01E75531
:101A2000FF4F608171818281938120E03FEF4FE71A
:101A300057E40E94420418160CF043C0FE01E3551F
:101A4000FF4F608171818281938120E030E040E22C
:101A500051E40E949C02DC01CB018E0109551F4F0D
:101A6000BC01CD010E94C600DC01CB01F8019183CD
:101A700080831FC0FE01EB55FF4F88EC90E09183FF
:101A80008083FE01EB55FF4F808191810197F1F733
:101A9000FE01EB55FF4F91838083DE01A955BF4FB7
:101AA000FE01E955FF4F80819181019711969C932A
:101AB0008E93FE01E955FF4F808191810097D1F609
:101AC00027C08E0109551F4FFE01E755FF4F60816A
:101AD0007181828193810E94C600DC01CB01F801F3
:101AE00091838083DE01AD55BF4FFE01E955FF4F65
:101AF000808191818D939C93FE01ED55FF4F8081F4
:101B000091810197F1F7FE01ED55FF4F918380839D
:101B100080E30E94AB14FE01E156FF4F80E090E0AD
:101B2000A0E2B1E480839183A283B3838E01055642
:101B30001F4FFE01E156FF4F6081718182819381C9
:101B400020E030E04AEF54E40E949C02DC01CB012B
:101B5000F80180839183A283B383FE01E556FF4F92
:101B6000608171818281938120E030E040E85FE311
:101B70000E94A204882344F4FE01E756FF4F81E04F
:101B800090E09183808364C0FE01E556FF4F608141
:101B900071818281938120E03FEF4FE757E40E94FB
:101BA000420418160CF043C0FE01E156FF4F60815D
:101BB00071818281938120E030E040E251E40E9413
:101BC0009C02DC01CB018E0107561F4FBC01CD01E9
:101BD0000E94C600DC01CB01F801918380831FC005
:101BE000FE01E956FF4F88EC90E091838083FE016F
:101BF000E956FF4F808191810197F1F7FE01E95687
:101C0000FF4F91838083DE01A756BF4FFE01E75649
:101C1000FF4F80819181019711969C938E93FE01D5
:101C2000E756FF4F808191810097D1F627C08E0142
:101C300007561F4FFE01E556FF4F6081718182817B
:101C400093810E94C600DC01CB01F801918380835F
:101C5000DE01AB56BF4FFE01E756FF4F80819181F9
:101C60008D939C93FE01EB56FF4F808191810197EC
:101C7000F1F7FE01EB56FF4F9183808380E30E94D2
:101C8000AB14FE01EF56FF4F80E090E0A0E8BFE309
:101C900080839183A283B3838E0103571F4FFE017C
:101CA000EF56FF4F608171818281938120E030E0A7
:101CB0004AEF54E40E949C02DC01CB01F8018083CE
:101CC0009183A283B383FE01E357FF4F608171814B
:101CD0008281938120E030E040E85FE30E94A2042B
:101CE000882344F4FE01E557FF4F81E090E09183A3
:101CF000808364C0FE01E357FF4F60817181828160
:101D0000938120E03FEF4FE757E40E94420418160A
:101D10000CF043C0FE01EF56FF4F6081718182815C
:101D2000938120E030E040E251E40E949C02DC011B
:101D3000CB018E0105571F4FBC01CD010E94C6008B
:101D4000DC01CB01F801918380831FC0FE01E757BE
:101D5000FF4F88EC90E091838083FE01E757FF4FAF
:101D6000808191810197F1F7FE01E757FF4F918341
:101D70008083DE01A557BF4FFE01E557FF4F8081ED
:101D80009181019711969C938E93FE01E557FF4F29
:101D9000808191810097D1F627C08E0105571F4F92
:101DA000FE01E357FF4F60817181828193810E9420
:101DB000C600DC01CB01F80191838083DE01A957C5
:101DC000BF4FFE01E557FF4F808191818D939C931A
:101DD000FE01E957FF4F808191810197F1F7FE01E4
:101DE000E957FF4F9183808380E30E94AB14FE018B
:101DF000ED57FF4F80E090E0A6E1B3E4808391834C
:101E0000A283B3838E0101581F4FFE01ED57FF4F90
:101E100060817181828193812BEA3AEA4AE250E43F
:101E20000E949C02DC01CB01F80180839183A28394
:101E3000B383FE01E158FF4F6081718182819381FC
:101E400020E030E040E85FE30E94A204882334F4FD
:101E5000FE01E258FF4F81E08083E0C0FE01E158BF
:101E6000FF4F608171818281938120E030E04FE7F4
:101E700053E40E94420418160CF0C0C0FE01ED5756
:101E8000FF4F608171818281938120E030E04AE7D9
:101E900054E40E949603DC01CB01FE01E658FF4F9B
:101EA00080839183A283B3838E010A581F4FFE0162
:101EB000E658FF4F608171818281938120E030E09C
:101EC0004AEF54E40E949C02DC01CB01F8018083BC
:101ED0009183A283B383FE01EA58FF4F6081718131
:101EE0008281938120E030E040E85FE30E94A20419
:101EF000882344F4FE01EC58FF4F81E090E0918389
:101F0000808364C0FE01EA58FF4F60817181828145
:101F1000938120E03FEF4FE757E40E9442041816F8
:101F20000CF043C0FE01E658FF4F60817181828151
:101F3000938120E030E040E251E40E949C02DC0109
:101F4000CB018E010C581F4FBC01CD010E94C60071
:101F5000DC01CB01F801918380831FC0FE01EE58A4
:101F6000FF4F88EC90E091838083FE01EE58FF4F95
:101F7000808191810197F1F7FE01EE58FF4F918327
:101F80008083DE01AC58BF4FFE01EC58FF4F8081CB
:101F90009181019711969C938E93FE01EC58FF4F0F
:101FA000808191810097D1F64BC08E010C581F4F54
:101FB000FE01EA58FF4F60817181828193810E9406
:101FC000C600DC01CB01F80191838083DE01A059BA
:101FD000BF4FFE01EC58FF4F8081918111969C9379
:101FE0008E93FE01E059FF4F808191810197F1F7B7
:101FF000FE01E059FF4F9183808322C08E01025879
:102000001F4FFE01E158FF4F6081718182819381F2
:102010000E94C600DC01CB01F8018083DE01A159DA
:10202000BF4FFE01E258FF4F80818C93FE01E159C2
:10203000FF4F80818A95F1F7FE01E159FF4F8083C0
:1020400088E30E94AB14FE01E559FF4F80E090E069
:10205000A8E4B2E480839183A283B3838E010959FB
:102060001F4FFE01E559FF4F60817181828193818D
:102070002BEA3AEA4AE250E40E949C02DC01CB01DE
:10208000F80180839183A283B383FE01E959FF4F56
:10209000608171818281938120E030E040E85FE3DC
:1020A0000E94A204882334F4FE01EA59FF4F81E024
:1020B0008083E0C0FE01E959FF4F60817181828118
:1020C000938120E030E04FE753E40E944204181669
:1020D0000CF0C0C0FE01E559FF4F60817181828123
:1020E000938120E030E04AE754E40E949603DC014B
:1020F000CB01FE01EE59FF4F80839183A283B3830E
:102100008E01025A1F4FFE01EE59FF4F608171810F
:102110008281938120E030E04AEF54E40E949C02E7
:10212000DC01CB01F80180839183A283B383FE019C
:10213000E25AFF4F608171818281938120E030E01B
:1021400040E85FE30E94A204882344F4FE01E45ABD
:10215000FF4F81E090E09183808364C0FE01E25AEA
:10216000FF4F608171818281938120E03FEF4FE7D3
:1021700057E40E94420418160CF043C0FE01EE59C9
:10218000FF4F608171818281938120E030E040E2E5
:1021900051E40E949C02DC01CB018E01045A1F4FC6
:1021A000BC01CD010E94C600DC01CB01F801918386
:1021B00080831FC0FE01E65AFF4F88EC90E09183B8
:1021C0008083FE01E65AFF4F808191810197F1F7EC
:1021D000FE01E65AFF4F91838083DE01A45ABF4F70
:1021E000FE01E45AFF4F80819181019711969C93E3
:1021F0008E93FE01E45AFF4F808191810097D1F6C2
:102200004BC08E01045A1F4FFE01E25AFF4F6081FE
:102210007181828193810E94C600DC01CB01F801AB
:1022200091838083DE01A85ABF4FFE01E45AFF4F1D
:102230008081918111969C938E93FE01E85AFF4F05
:10224000808191810197F1F7FE01E85AFF4F918358
:10225000808322C08E010A591F4FFE01E959FF4FAA
:1022600060817181828193810E94C600DC01CB0173
:10227000F8018083DE01A95ABF4FFE01EA59FF4FE2
:1022800080818C93FE01E95AFF4F80818A95F1F796
:10229000FE01E95AFF4F808388E00E94AB14FE01E3
:1022A000ED5AFF4F80E090E0A8E4B2E48083918390
:1022B000A283B3838E01015B1F4FFE01ED5AFF4FD6
:1022C00060817181828193812BEA3AEA4AE250E48B
:1022D0000E949C02DC01CB01F80180839183A283E0
:1022E000B383FE01E15BFF4F608171818281938145
:1022F00020E030E040E85FE30E94A204882334F449
:10230000FE01E25BFF4F81E08083E0C0FE01E15B04
:10231000FF4F608171818281938120E030E04FE73F
:1023200053E40E94420418160CF0C0C0FE01ED5A9E
:10233000FF4F608171818281938120E030E04AE724
:1023400054E40E949603DC01CB01FE01E65BFF4FE3
:1023500080839183A283B3838E010A5B1F4FFE01AA
:10236000E65BFF4F608171818281938120E030E0E4
:102370004AEF54E40E949C02DC01CB01F801808307
:102380009183A283B383FE01EA5BFF4F6081718179
:102390008281938120E030E040E85FE30E94A20464
:1023A000882344F4FE01EC5BFF4F81E090E09183D1
:1023B000808364C0FE01EA5BFF4F6081718182818E
:1023C000938120E03FEF4FE757E40E944204181644
:1023D0000CF043C0FE01E65BFF4F6081718182819A
:1023E000938120E030E040E251E40E949C02DC0155
:1023F000CB018E010C5B1F4FBC01CD010E94C600BA
:10240000DC01CB01F801918380831FC0FE01EE5BEC
:10241000FF4F88EC90E091838083FE01EE5BFF4FDD
:10242000808191810197F1F7FE01EE5BFF4F91836F
:102430008083DE01AC5BBF4FFE01EC5BFF4F808110
:102440009181019711969C938E93FE01EC5BFF4F57
:10245000808191810097D1F642C08E010C5B1F4FA5
:10246000FE01EA5BFF4F60817181828193810E944E
:10247000C600DC01CB01F80191838083DE01A05C02
:10248000BF4FFE01EC5BFF4F8081918111969C93C1
:102490008E93FE01E05CFF4F808191810197F1F7FF
:1024A000FE01E05CFF4F9183808319C08E01025BC7
:1024B0001F4FFE01E15BFF4F60817181828193813B
:1024C0000E94C600DC01CB01F8018083FE01E25BC3
:1024D000FF4F80818FAF8FAD8A95F1F78FAF81E08D
:1024E0000E94AB1480E090E0A0E4B0E48BAF9CAF1E
:1024F000ADAFBEAF6BAD7CAD8DAD9EAD20E030E03D
:102500004AEF54E40E949C02DC01CB018FAB98AFF0
:10251000A9AFBAAF6FA978AD89AD9AAD20E030E030
:1025200040E85FE30E94A20488232CF481E090E05D
:102530009EAB8DAB3FC06FA978AD89AD9AAD20E061
:102540003FEF4FE757E40E94420418164CF56BAD7D
:102550007CAD8DAD9EAD20E030E040E251E40E94C4
:102560009C02DC01CB01BC01CD010E94C600DC0154
:10257000CB019EAB8DAB0FC088EC90E09CAB8BABDE
:102580008BA99CA90197F1F79CAB8BAB8DA99EA958
:1025900001979EAB8DAB8DA99EA9009769F714C0DA
:1025A0006FA978AD89AD9AAD0E94C600DC01CB0160
:1025B0009EAB8DAB8DA99EA99AAB89AB89A99AA92F
:1025C0000197F1F79AAB89AB86E00E94AB1480E0EB
:1025D00090E0A8E4B2E48DA79EA7AFA7B8AB6DA525
:1025E0007EA58FA598A92BEA3AEA4AE250E40E9418
:1025F0009C02DC01CB0189A79AA7ABA7BCA769A560
:102600007AA58BA59CA520E030E040E85FE30E941E
:10261000A20488231CF481E088A791C069A57AA54B
:102620008BA59CA520E030E04FE753E40E944204D4
:1026300018160CF07BC06DA57EA58FA598A920E08B
:1026400030E04AE754E40E949603DC01CB018CA3FE
:102650009DA3AEA3BFA36CA17DA18EA19FA120E0ED
:1026600030E04AEF54E40E949C02DC01CB0188A3D5
:1026700099A3AAA3BBA368A179A18AA19BA120E0E9
:1026800030E040E85FE30E94A20488232CF481E05C
:1026900090E09F8F8E8F3FC068A179A18AA19BA1F6
:1026A00020E03FEF4FE757E40E94420418164CF534
:1026B0006CA17DA18EA19FA120E030E040E251E419
:1026C0000E949C02DC01CB01BC01CD010E94C6002E
:1026D000DC01CB019F8F8E8F0FC088EC90E09D8F27
:1026E0008C8F8C8D9D8D0197F1F79D8F8C8F8E8DAA
:1026F0009F8D01979F8F8E8F8E8D9F8D009769F78D
:1027000024C068A179A18AA19BA10E94C600DC0116
:10271000CB019F8F8E8F8E8D9F8D9B8F8A8F8A8D01
:102720009B8D0197F1F79B8F8A8F0FC069A57AA5C2
:102730008BA59CA50E94C600DC01CB0188A788A5BB
:10274000898F898D8A95F1F7898F8CE00E94AB146F
:1027500080E090E0A8E4B2E48D8B9E8BAF8BB88FC5
:102760006D897E898F89988D2BEA3AEA4AE250E496
:102770000E949C02DC01CB01898B9A8BAB8BBC8BBA
:1027800069897A898B899C8920E030E040E85FE3A1
:102790000E94A20488231CF481E0888B91C069897F
:1027A0007A898B899C8920E030E04FE753E40E94CE
:1027B000420418160CF07BC06D897E898F89988D34
:1027C00020E030E04AE754E40E949603DC01CB01AC
:1027D0008C879D87AE87BF876C857D858E859F851D
:1027E00020E030E04AEF54E40E949C02DC01CB017F
:1027F00088879987AA87BB87688579858A859B851D
:1028000020E030E040E85FE30E94A20488232CF43B
:1028100081E090E09F838E833FC0688579858A85BB
:102820009B8520E03FEF4FE757E40E9442041816D3
:102830004CF56C857D858E859F8520E030E040E2FB
:1028400051E40E949C02DC01CB01BC01CD010E943D
:10285000C600DC01CB019F838E830FC088EC90E023
:102860009D838C838C819D810197F1F79D838C835F
:102870008E819F8101979F838E838E819F81009798
:1028800069F724C0688579858A859B850E94C60082
:10289000DC01CB019F838E838E819F819B838A8302
:1028A0008A819B810197F1F79B838A830FC0698995
:1028B0007A898B899C890E94C600DC01CB01888BB8
:1028C0008889898389818A95F1F78983C055DF4F8B
:1028D0000FB6F894DEBF0FBECDBFCF91DF911F9131
:1028E0000F910895DF93CF930F92CDB7DEB7898311
:1028F000898182958F700E94AB1489818F700E94AC
:10290000AB140F90CF91DF910895DF93CF9300D058
:1029100000D0CDB7DEB78A836B838A818031A0F483
:102920008B81823088F48B81882329F48A81982FC7
:1029300090589C8304C08A81982F90549C838C81EA
:10294000898389810E94AB140F900F900F900F9094
:10295000CF91DF910895DF93CF93CDB7DEB72F9757
:102960000FB6F894DEBF0FBECDBF8F8782E060E068
:1029700041E00E94DF0982E060E040E00E94E3085D
:1029800082E061E040E00E94E30881E06FEF0E9496
:10299000E70781E06F850E94280882E06FEF0E94C0
:1029A000E70782E062E041E00E94E30880E090E017
:1029B000A0E0B0E48B879C87AD87BE876B857C8564
:1029C0008D859E8520E030E04AEF54E40E949C0211
:1029D000DC01CB018F839887A987BA876F817885BF
:1029E00089859A8520E030E040E85FE30E94A204F8
:1029F00088232CF481E090E09E838D833FC06F811B
:102A0000788589859A8520E03FEF4FE757E40E945B
:102A1000420418164CF56B857C858D859E8520E0DB
:102A200030E040E251E40E949C02DC01CB01BC0199
:102A3000CD010E94C600DC01CB019E838D830FC0B7
:102A400088EC90E09C838B838B819C810197F1F7CC
:102A50009C838B838D819E8101979E838D838D8145
:102A60009E81009769F714C06F81788589859A8562
:102A70000E94C600DC01CB019E838D838D819E81E7
:102A80009A83898389819A810197F1F79A8389834F
:102A900082E062E040E00E94E3082F960FB6F894CF
:102AA000DEBF0FBECDBFCF91DF9108950F931F936F
:102AB000DF93CF93CDB7DEB7C156D0400FB6F894B1
:102AC000DEBF0FBECDBFFE01EF59FF4F808382E016
:102AD00060E040E00E94E30882E061E040E00E94A4
:102AE000E308A8E3B0E0E8E3F0E08081982F9F706E
:102AF000FE01EF59FF4F8081807F892B8C9382E00C
:102B000062E041E00E94E308FE01E35AFF4F80E0EB
:102B100090E0A0E8BFE380839183A283B3838E011A
:102B2000075A1F4FFE01E35AFF4F60817181828176
:102B300093812BEA3AEA4AE250E40E949C02DC01CB
:102B4000CB01F80180839183A283B383FE01E75A0E
:102B5000FF4F608171818281938120E030E040E805
:102B60005FE30E94A204882334F4FE01E85AFF4F79
:102B700081E08083E0C0FE01E75AFF4F60817181F0
:102B80008281938120E030E04FE753E40E944204C9
:102B900018160CF0C0C0FE01E35AFF4F608171812E
:102BA0008281938120E030E04AE754E40E9496035A
:102BB000DC01CB01FE01EC5AFF4F80839183A2839D
:102BC000B3838E01005B1F4FFE01EC5AFF4F608103
:102BD00071818281938120E030E04AEF54E40E94C9
:102BE0009C02DC01CB01F80180839183A283B38333
:102BF000FE01E05BFF4F608171818281938120E063
:102C000030E040E85FE30E94A204882344F4FE0120
:102C1000E25BFF4F81E090E09183808364C0FE011E
:102C2000E05BFF4F608171818281938120E03FEF03
:102C30004FE757E40E94420418160CF043C0FE010F
:102C4000EC5AFF4F608171818281938120E030E0F6
:102C500040E251E40E949C02DC01CB018E01025B48
:102C60001F4FBC01CD010E94C600DC01CB01F80161
:102C7000918380831FC0FE01E45BFF4F88EC90E0EE
:102C800091838083FE01E45BFF4F808191810197F6
:102C9000F1F7FE01E45BFF4F91838083DE01A25BCD
:102CA000BF4FFE01E25BFF4F80819181019711963A
:102CB0009C938E93FE01E25BFF4F80819181009790
:102CC000D1F64BC08E01025B1F4FFE01E05BFF4F50
:102CD00060817181828193810E94C600DC01CB01F9
:102CE000F80191838083DE01A65BBF4FFE01E25BAA
:102CF000FF4F8081918111969C938E93FE01E65B3C
:102D0000FF4F808191810197F1F7FE01E65BFF4F54
:102D10009183808322C08E01085A1F4FFE01E75A1B
:102D2000FF4F60817181828193810E94C600DC0126
:102D3000CB01F8018083DE01A75BBF4FFE01E85A9B
:102D4000FF4F80818C93FE01E75BFF4F80818A9566
:102D5000F1F7FE01E75BFF4F808382E062E040E035
:102D60000E94E308FE01EB5BFF4F80E090E0A8ECDF
:102D7000B2E480839183A283B3838E010F5B1F4FE4
:102D8000FE01EB5BFF4F60817181828193812BEAB1
:102D90003AEA4AE250E40E949C02DC01CB01F801CD
:102DA00080839183A283B383FE01EF5BFF4F608139
:102DB00071818281938120E030E040E85FE30E94EE
:102DC000A204882334F481E0FE01E05CFF4F80839D
:102DD0009DC0FE01EF5BFF4F608171818281938115
:102DE00020E030E04FE753E40E94420418160CF054
:102DF0007EC0FE01EB5BFF4F608171818281938118
:102E000020E030E04AE754E40E949603DC01CB0165
:102E10008CAF9DAFAEAFBFAF6CAD7DAD8EAD9FAD96
:102E200020E030E04AEF54E40E949C02DC01CB0138
:102E300088AF99AFAAAFBBAF68AD79AD8AAD9BAD96
:102E400020E030E040E85FE30E94A20488232CF4F5
:102E500081E090E09FAB8EAB3FC068AD79AD8AADAD
:102E60009BAD20E03FEF4FE757E40E944204181665
:102E70004CF56CAD7DAD8EAD9FAD20E030E040E215
:102E800051E40E949C02DC01CB01BC01CD010E94F7
:102E9000C600DC01CB019FAB8EAB0FC088EC90E08D
:102EA0009DAB8CAB8CA99DA90197F1F79DAB8CAB29
:102EB0008EA99FA901979FAB8EAB8EA99FA9009762
:102EC00069F72DC068AD79AD8AAD9BAD0E94C60093
:102ED000DC01CB019FAB8EAB8EA99FA99BAB8AABCC
:102EE0008AA99BA90197F1F79BAB8AAB18C0FE0199
:102EF000EF5BFF4F60817181828193810E94C600E8
:102F0000DC01CB01FE01E05CFF4F8083FE01E05C51
:102F1000FF4F808189AB89A98A95F1F789ABA8E336
:102F2000B0E0E8E3F0E08081282F2F70FE01EF5938
:102F3000FF4F8081882F90E082959295907F98270F
:102F4000807F9827822B8C9382E062E041E00E9490
:102F5000E30880E090E0A0E8BFE38DA79EA7AFA7BD
:102F6000B8AB6DA57EA58FA598A92BEA3AEA4AE2EF
:102F700050E40E949C02DC01CB0189A79AA7ABA771
:102F8000BCA769A57AA58BA59CA520E030E040E808
:102F90005FE30E94A20488231CF481E088A791C00B
:102FA00069A57AA58BA59CA520E030E04FE753E406
:102FB0000E94420418160CF07BC06DA57EA58FA55B
:102FC00098A920E030E04AE754E40E949603DC012F
:102FD000CB018CA39DA3AEA3BFA36CA17DA18EA1A9
:102FE0009FA120E030E04AEF54E40E949C02DC0103
:102FF000CB0188A399A3AAA3BBA368A179A18AA1A5
:103000009BA120E030E040E85FE30E94A204882317
:103010002CF481E090E09F8F8E8F3FC068A179A152
:103020008AA19BA120E03FEF4FE757E40E944204B2
:1030300018164CF56CA17DA18EA19FA120E030E077
:1030400040E251E40E949C02DC01CB01BC01CD01B5
:103050000E94C600DC01CB019F8F8E8F0FC088ECD1
:1030600090E09D8F8C8F8C8D9D8D0197F1F79D8FBA
:103070008C8F8E8D9F8D01979F8F8E8F8E8D9F8DC4
:10308000009769F724C068A179A18AA19BA10E9439
:10309000C600DC01CB019F8F8E8F8E8D9F8D9B8F05
:1030A0008A8F8A8D9B8D0197F1F79B8F8A8F0FC036
:1030B00069A57AA58BA59CA50E94C600DC01CB0161
:1030C00088A788A5898F898D8A95F1F7898F82E0F5
:1030D00062E040E00E94E30880E090E0A8ECB2E407
:1030E0008D8B9E8BAF8BB88F6D897E898F89988DE4
:1030F0002BEA3AEA4AE250E40E949C02DC01CB014E
:10310000898B9A8BAB8BBC8B69897A898B899C89DB
:1031100020E030E040E85FE30E94A20488231CF432
:1031200081E0888B91C069897A898B899C8920E0AC
:1031300030E04FE753E40E94420418160CF07BC0C5
:103140006D897E898F89988D20E030E04AE754E4CC
:103150000E949603DC01CB018C879D87AE87BF87D9
:103160006C857D858E859F8520E030E04AEF54E4B4
:103170000E949C02DC01CB0188879987AA87BB87C4
:10318000688579858A859B8520E030E040E85FE3AB
:103190000E94A20488232CF481E090E09F838E8318
:1031A0003FC0688579858A859B8520E03FEF4FE7A2
:1031B00057E40E94420418164CF56C857D858E8577
:1031C0009F8520E030E040E251E40E949C02DC0157
:1031D000CB01BC01CD010E94C600DC01CB019F8365
:1031E0008E830FC088EC90E09D838C838C819D81C1
:1031F0000197F1F79D838C838E819F8101979F8337
:103200008E838E819F81009769F724C068857985B8
:103210008A859B850E94C600DC01CB019F838E833B
:103220008E819F819B838A838A819B810197F1F79D
:103230009B838A830FC069897A898B899C890E94C4
:10324000C600DC01CB01888B8889898389818A95B6
:10325000F1F78983CF59DF4F0FB6F894DEBF0FBE69
:10326000CDBFCF91DF911F910F910895DF93CF9341
:10327000CDB7DEB7E1970FB6F894DEBF0FBECDBF76
:1032800089AB82E060E041E00E94E30882E061E017
:1032900040E00E94E30881E069A90E94280882E0DA
:1032A00062E041E00E94E30880E090E0A0E8BFE334
:1032B0008DA79EA7AFA7B8AB6DA57EA58FA598A932
:1032C0002BEA3AEA4AE250E40E949C02DC01CB017C
:1032D00089A79AA7ABA7BCA769A57AA58BA59CA52A
:1032E00020E030E040E85FE30E94A20488231CF461
:1032F00081E088A791C069A57AA58BA59CA520E04F
:1033000030E04FE753E40E94420418160CF07BC0F3
:103310006DA57EA58FA598A920E030E04AE754E48A
:103320000E949603DC01CB018CA39DA3AEA3BFA397
:103330006CA17DA18EA19FA120E030E04AEF54E472
:103340000E949C02DC01CB0188A399A3AAA3BBA382
:1033500068A179A18AA19BA120E030E040E85FE369
:103360000E94A20488232CF481E090E09F8F8E8F2E
:103370003FC068A179A18AA19BA120E03FEF4FE760
:1033800057E40E94420418164CF56CA17DA18EA151
:103390009FA120E030E040E251E40E949C02DC0169
:1033A000CB01BC01CD010E94C600DC01CB019F8F87
:1033B0008E8F0FC088EC90E09D8F8C8F8C8D9D8DB3
:1033C0000197F1F79D8F8C8F8E8D9F8D01979F8F29
:1033D0008E8F8E8D9F8D009769F724C068A179A18B
:1033E0008AA19BA10E94C600DC01CB019F8F8E8F1A
:1033F0008E8D9F8D9B8F8A8F8A8D9B8D0197F1F784
:103400009B8F8A8F0FC069A57AA58BA59CA50E946A
:10341000C600DC01CB0188A788A5898F898D8A9594
:10342000F1F7898F82E062E040E00E94E30880E0EB
:1034300090E0A8E4B2E48D8B9E8BAF8BB88F6D8942
:103440007E898F89988D2BEA3AEA4AE250E40E94FD
:103450009C02DC01CB01898B9A8BAB8BBC8B69897D
:103460007A898B899C8920E030E040E85FE30E9404
:10347000A20488231CF481E0888B91C069897A8931
:103480008B899C8920E030E04FE753E40E9442049E
:1034900018160CF07BC06D897E898F89988D20E08D
:1034A00030E04AE754E40E949603DC01CB018C87AC
:1034B0009D87AE87BF876C857D858E859F8520E043
:1034C00030E04AEF54E40E949C02DC01CB01888783
:1034D0009987AA87BB87688579858A859B8520E03F
:1034E00030E040E85FE30E94A20488232CF481E0EE
:1034F00090E09F838E833FC0688579858A859B8510
:1035000020E03FEF4FE757E40E94420418164CF5C5
:103510006C857D858E859F8520E030E040E251E41A
:103520000E949C02DC01CB01BC01CD010E94C600BF
:10353000DC01CB019F838E830FC088EC90E09D83DC
:103540008C838C819D810197F1F79D838C838E8183
:103550009F8101979F838E838E819F81009769F75A
:1035600024C0688579858A859B850E94C600DC0118
:10357000CB019F838E838E819F819B838A838A81E7
:103580009B810197F1F79B838A830FC069897A89B0
:103590008B899C890E94C600DC01CB01888B8889BD
:1035A000898389818A95F1F78983E1960FB6F8942A
:1035B000DEBF0FBECDBFCF91DF9108950F931F9354
:1035C000DF93CF93CDB7DEB7CF56D0400FB6F89488
:1035D000DEBF0FBECDBFFE01E159FF4F808382E009
:1035E00060E041E00E94E30882E061E040E00E9488
:1035F000E308FE01E159FF4F8081982F907F81E021
:10360000692F0E942808FE01E559FF4F80E090E0F5
:10361000A0E8BFE380839183A283B3838E0109591D
:103620001F4FFE01E559FF4F6081718182819381B7
:103630002BEA3AEA4AE250E40E949C02DC01CB0108
:10364000F80180839183A283B383FE01E959FF4F80
:10365000608171818281938120E030E040E85FE306
:103660000E94A204882334F4FE01EA59FF4F81E04E
:103670008083E0C0FE01E959FF4F60817181828142
:10368000938120E030E04FE753E40E944204181693
:103690000CF0C0C0FE01E559FF4F6081718182814D
:1036A000938120E030E04AE754E40E949603DC0175
:1036B000CB01FE01EE59FF4F80839183A283B38338
:1036C0008E01025A1F4FFE01EE59FF4F608171813A
:1036D0008281938120E030E04AEF54E40E949C0212
:1036E000DC01CB01F80180839183A283B383FE01C7
:1036F000E25AFF4F608171818281938120E030E046
:1037000040E85FE30E94A204882344F4FE01E45AE7
:10371000FF4F81E090E09183808364C0FE01E25A14
:10372000FF4F608171818281938120E03FEF4FE7FD
:1037300057E40E94420418160CF043C0FE01EE59F3
:10374000FF4F608171818281938120E030E040E20F
:1037500051E40E949C02DC01CB018E01045A1F4FF0
:10376000BC01CD010E94C600DC01CB01F8019183B0
:1037700080831FC0FE01E65AFF4F88EC90E09183E2
:103780008083FE01E65AFF4F808191810197F1F716
:10379000FE01E65AFF4F91838083DE01A45ABF4F9A
:1037A000FE01E45AFF4F80819181019711969C930D
:1037B0008E93FE01E45AFF4F808191810097D1F6EC
:1037C0004BC08E01045A1F4FFE01E25AFF4F608129
:1037D0007181828193810E94C600DC01CB01F801D6
:1037E00091838083DE01A85ABF4FFE01E45AFF4F48
:1037F0008081918111969C938E93FE01E85AFF4F30
:10380000808191810197F1F7FE01E85AFF4F918382
:10381000808322C08E010A591F4FFE01E959FF4FD4
:1038200060817181828193810E94C600DC01CB019D
:10383000F8018083DE01A95ABF4FFE01EA59FF4F0C
:1038400080818C93FE01E95AFF4F80818A95F1F7C0
:10385000FE01E95AFF4F808382E062E041E00E946E
:10386000E308FE01ED5AFF4F80E090E0A0E8BFE3DF
:1038700080839183A283B3838E01015B1F4FFE017E
:10388000ED5AFF4F60817181828193812BEA3AEA80
:103890004AE250E40E949C02DC01CB01F8018083E3
:1038A0009183A283B383FE01E15BFF4F608171814D
:1038B0008281938120E030E040E85FE30E94A2042F
:1038C000882334F4FE01E25BFF4F81E08083E0C097
:1038D000FE01E15BFF4F608171818281938120E075
:1038E00030E04FE753E40E94420418160CF0C0C0C9
:1038F000FE01ED5AFF4F608171818281938120E04A
:1039000030E04AE754E40E949603DC01CB01FE015B
:10391000E65BFF4F80839183A283B3838E010A5BB2
:103920001F4FFE01E65BFF4F6081718182819381B1
:1039300020E030E04AEF54E40E949C02DC01CB011D
:10394000F80180839183A283B383FE01EA5BFF4F7A
:10395000608171818281938120E030E040E85FE303
:103960000E94A204882344F4FE01EC5BFF4F81E037
:1039700090E09183808364C0FE01EA5BFF4F608129
:1039800071818281938120E03FEF4FE757E40E94ED
:10399000420418160CF043C0FE01E65BFF4F608145
:1039A00071818281938120E030E040E251E40E9405
:1039B0009C02DC01CB018E010C5B1F4FBC01CD01D1
:1039C0000E94C600DC01CB01F801918380831FC0F7
:1039D000FE01EE5BFF4F88EC90E091838083FE0157
:1039E000EE5BFF4F808191810197F1F7FE01EE5B65
:1039F000FF4F91838083DE01AC5BBF4FFE01EC5B28
:103A0000FF4F80819181019711969C938E93FE01C7
:103A1000EC5BFF4F808191810097D1F642C08E010F
:103A20000C5B1F4FFE01EA5BFF4F60817181828159
:103A300093810E94C600DC01CB01F8019183808351
:103A4000DE01A05CBF4FFE01EC5BFF4F80819181E6
:103A500011969C938E93FE01E05CFF4F80819181D3
:103A60000197F1F7FE01E05CFF4F9183808319C05D
:103A70008E01025B1F4FFE01E15BFF4F6081718190
:103A8000828193810E94C600DC01CB01F801808312
:103A9000FE01E25BFF4F80818FAF8FAD8A95F1F71A
:103AA0008FAF82E062E040E00E94E30880E090E0B7
:103AB000A8ECB2E48BAF9CAFADAFBEAF6BAD7CAD4D
:103AC0008DAD9EAD2BEA3AEA4AE250E40E949C0298
:103AD000DC01CB018FAB98AFA9AFBAAF6FA978ADBE
:103AE00089AD9AAD20E030E040E85FE30E94A20497
:103AF00088231CF481E08EAB91C06FA978AD89ADAD
:103B00009AAD20E030E04FE753E40E9442041816DB
:103B10000CF07BC06BAD7CAD8DAD9EAD20E030E098
:103B20004AE754E40E949603DC01CB018AAB9BABCD
:103B3000ACABBDAB6AA97BA98CA99DA920E030E004
:103B40004AEF54E40E949C02DC01CB018EA79FA7A0
:103B5000A8ABB9AB6EA57FA588A999A920E030E0F4
:103B600040E85FE30E94A20488232CF481E090E007
:103B70009DA78CA73FC06EA57FA588A999A920E025
:103B80003FEF4FE757E40E94420418164CF56AA92C
:103B90007BA98CA99DA920E030E040E251E40E947D
:103BA0009C02DC01CB01BC01CD010E94C600DC01FE
:103BB000CB019DA78CA70FC088EC90E09BA78AA79C
:103BC0008AA59BA50197F1F79BA78AA78CA59DA520
:103BD00001979DA78CA78CA59DA5009769F724C088
:103BE0006EA57FA588A999A90E94C600DC01CB011A
:103BF0009DA78CA78CA59DA599A788A788A599A501
:103C00000197F1F799A788A70FC06FA978AD89AD83
:103C10009AAD0E94C600DC01CB018EAB8EA98FA3AA
:103C20008FA18A95F1F78FA3FE01E159FF4F8081A3
:103C3000882F90E082959295907F9827807F982793
:103C4000982F81E0692F0E94280882E062E041E01D
:103C50000E94E30880E090E0A0E8BFE38BA39CA370
:103C6000ADA3BEA36BA17CA18DA19EA12BEA3AEAD4
:103C70004AE250E40E949C02DC01CB018F8F98A3A2
:103C8000A9A3BAA36F8D78A189A19AA120E030E001
:103C900040E85FE30E94A20488231CF481E08E8F39
:103CA00091C06F8D78A189A19AA120E030E04FE703
:103CB00053E40E94420418160CF07BC06BA17CA157
:103CC0008DA19EA120E030E04AE754E40E949603D3
:103CD000DC01CB018A8F9B8FAC8FBD8F6A8D7B8D72
:103CE0008C8D9D8D20E030E04AEF54E40E949C02D0
:103CF000DC01CB018E8B9F8BA88FB98F6E897F895A
:103D0000888D998D20E030E040E85FE30E94A204B6
:103D100088232CF481E090E09D8B8C8B3FC06E89D2
:103D20007F89888D998D20E03FEF4FE757E40E940F
:103D3000420418164CF56A8D7B8D8C8D9D8D20E08C
:103D400030E040E251E40E949C02DC01CB01BC0166
:103D5000CD010E94C600DC01CB019D8B8C8B0FC076
:103D600088EC90E09B8B8A8B8A899B890197F1F77D
:103D70009B8B8A8B8C899D8901979D8B8C8B8C89E1
:103D80009D89009769F724C06E897F89888D998DF8
:103D90000E94C600DC01CB019D8B8C8B8C899D8998
:103DA000998B888B888999890197F1F7998B888BF2
:103DB0000FC06F8D78A189A19AA10E94C600DC0175
:103DC000CB018E8F8E8D8F878F858A95F1F78F87A8
:103DD00082E062E040E00E94E30880E090E0A0E042
:103DE000B0E48B879C87AD87BE876B857C858D858E
:103DF0009E8520E030E04AEF54E40E949C02DC0102
:103E0000CB018F839887A987BA876F817885898549
:103E10009A8520E030E040E85FE30E94A204882316
:103E20002CF481E090E09E838D833FC06F81788584
:103E300089859A8520E03FEF4FE757E40E944204CE
:103E400018164CF56B857C858D859E8520E030E0CD
:103E500040E251E40E949C02DC01CB01BC01CD0197
:103E60000E94C600DC01CB019E838D830FC088ECCD
:103E700090E09C838B838B819C810197F1F79C83DD
:103E80008B838D819E8101979E838D838D819E8101
:103E9000009769F714C06F81788589859A850E949B
:103EA000C600DC01CB019E838D838D819E819A8328
:103EB000898389819A810197F1F79A838983C1590E
:103EC000DF4F0FB6F894DEBF0FBECDBFCF91DF91AD
:103ED0001F910F910895DF93CF93CDB7DEB76C9705
:103EE0000FB6F894DEBF0FBECDBF83E06FEF0E9428
:103EF000E70782E060E041E00E94DF0982E061E0E4
:103F000041E00E94DF0982E062E041E00E94DF09B7
:103F100080E090E0A0E2B2E4898F9A8FAB8FBC8FF3
:103F2000698D7A8D8B8D9C8D20E030E04AEF54E4D2
:103F30000E949C02DC01CB018D8B9E8BAF8BB88FD6
:103F40006D897E898F89988D20E030E040E85FE3BD
:103F50000E94A20488232CF481E090E09C8B8B8B40
:103F60003FC06D897E898F89988D20E03FEF4FE7B4
:103F700057E40E94420418164CF5698D7A8D8B8D9A
:103F80009C8D20E030E040E251E40E949C02DC0184
:103F9000CB01BC01CD010E94C600DC01CB019C8B92
:103FA0008B8B0FC088EC90E09A8B898B89899A89DA
:103FB0000197F1F79A8B898B8B899C8901979C8B50
:103FC0008B8B8B899C89009769F714C06D897E89DA
:103FD0008F89988D0E94C600DC01CB019C8B8B8B56
:103FE0008B899C89988B8F878F8598890197F1F7AA
:103FF000988B8F8782E00E94282188E20E942821E6
:104000008CE00E94282186E00E94282181E00E9405
:10401000282180E090E0A0E0B0E48B879C87AD870A
:10402000BE876B857C858D859E8520E030E04AEFDC
:1040300054E40E949C02DC01CB018F839887A987FE
:10404000BA876F81788589859A8520E030E040E8DD
:104050005FE30E94A20488232CF481E090E09E8319
:104060008D833FC06F81788589859A8520E03FEFF9
:104070004FE757E40E94420418164CF56B857C8587
:104080008D859E8520E030E040E251E40E949C0254
:10409000DC01CB01BC01CD010E94C600DC01CB01DB
:1040A0009E838D830FC088EC90E09C838B838B81F3
:1040B0009C810197F1F79C838B838D819E81019771
:1040C0009E838D838D819E81009769F714C06F81D7
:1040D000788589859A850E94C600DC01CB019E8384
:1040E0008D838D819E819A83898389819A810197AD
:1040F000F1F79A8389836C960FB6F894DEBF0FBEF2
:10410000CDBFCF91DF910895DF93CF93CDB7DEB7C9
:104110002D970FB6F894DEBF0FBECDBF9D878C875D
:1041200019828C859D85009711F580E30E943619D0
:1041300034C08981E82FF0E08C859D852AE030E04D
:10414000B9010E940C31282F205DCE010296E80FA4
:10415000F91F20838C859D852AE030E0B9010E94FB
:104160000C31CB019D878C8789818F5F89838C85FA
:104170009D850097F1F60EC08981815089838981E0
:10418000282F30E0CE010296FC01E20FF31F808160
:104190000E9436198981882379F72D960FB6F894F5
:1041A000DEBF0FBECDBFCF91DF910895DF93CF93D8
:1041B000CDB7DEB72D970FB6F894DEBF0FBECDBFDB
:1041C0009D878C8719828C859D85009711F580E3EA
:1041D0000E94A02434C08981E82FF0E08C859D8561
:1041E0002AE030E0B9010E940C31282F205DCE0179
:1041F0000296E80FF91F20838C859D852AE030E028
:10420000B9010E940C31CB019D878C8789818F5F1A
:1042100089838C859D850097F1F60EC08981815038
:1042200089838981282F30E0CE010296FC01E20FBC
:10423000F31F80810E94A0248981882379F72D961D
:104240000FB6F894DEBF0FBECDBFCF91DF910895BA
:104250000F931F93DF93CF93CDB7DEB7C755D040F1
:104260000FB6F894DEBF0FBECDBFFE01E95AFF4F77
:104270008083A5E3B0E0E5E3F0E080818E7F8C935E
:10428000A5E3B0E0E5E3F0E080818D7F8C93A8E3C7
:10429000B0E0E8E3F0E08081982F9F70FE01E95ADA
:1042A000FF4F8081807F892B8C93A5E3B0E0E5E30D
:1042B000F0E0808184608C93FE01ED5AFF4F80E036
:1042C00090E0A0E8BFE380839183A283B3838E0153
:1042D000015B1F4FFE01ED5AFF4F608171818281AA
:1042E00093812BEA3AEA4AE250E40E949C02DC0104
:1042F000CB01F80180839183A283B383FE01E15B4C
:10430000FF4F608171818281938120E030E040E83D
:104310005FE30E94A204882334F4FE01E25BFF4FB6
:1043200081E08083E0C0FE01E15BFF4F608171812D
:104330008281938120E030E04FE753E40E94420401
:1043400018160CF0C0C0FE01ED5AFF4F608171815C
:104350008281938120E030E04AE754E40E94960392
:10436000DC01CB01FE01E65BFF4F80839183A283DA
:10437000B3838E010A5B1F4FFE01E65BFF4F608136
:1043800071818281938120E030E04AEF54E40E9401
:104390009C02DC01CB01F80180839183A283B3836B
:1043A000FE01EA5BFF4F608171818281938120E091
:1043B00030E040E85FE30E94A204882344F4FE0159
:1043C000EC5BFF4F81E090E09183808364C0FE014D
:1043D000EA5BFF4F608171818281938120E03FEF32
:1043E0004FE757E40E94420418160CF043C0FE0148
:1043F000E65BFF4F608171818281938120E030E034
:1044000040E251E40E949C02DC01CB018E010C5B76
:104410001F4FBC01CD010E94C600DC01CB01F80199
:10442000918380831FC0FE01EE5BFF4F88EC90E01C
:1044300091838083FE01EE5BFF4F80819181019724
:10444000F1F7FE01EE5BFF4F91838083DE01AC5BF1
:10445000BF4FFE01EC5BFF4F808191810197119668
:104460009C938E93FE01EC5BFF4F808191810097BE
:10447000D1F642C08E010C5B1F4FFE01EA5BFF4F7D
:1044800060817181828193810E94C600DC01CB0131
:10449000F80191838083DE01A05CBF4FFE01EC5BDD
:1044A000FF4F8081918111969C938E93FE01E05C79
:1044B000FF4F808191810197F1F7FE01E05CFF4F92
:1044C0009183808319C08E01025B1F4FFE01E15B67
:1044D000FF4F60817181828193810E94C600DC015F
:1044E000CB01F8018083FE01E25BFF4F80818FAF3B
:1044F0008FAD8A95F1F78FAFA5E3B0E0E5E3F0E08B
:1045000080818B7F8C9380E090E0A8E4B3E48BAF54
:104510009CAFADAFBEAF6BAD7CAD8DAD9EAD2BEAAC
:104520003AEA4AE250E40E949C02DC01CB018FABE4
:1045300098AFA9AFBAAF6FA978AD89AD9AAD20E0B9
:1045400030E040E85FE30E94A20488231CF481E08D
:104550008EAB91C06FA978AD89AD9AAD20E030E007
:104560004FE753E40E94420418160CF07BC06BAD79
:104570007CAD8DAD9EAD20E030E04AE754E40E9472
:104580009603DC01CB018AAB9BABACABBDAB6AA99C
:104590007BA98CA99DA920E030E04AEF54E40E9459
:1045A0009C02DC01CB018EA79FA7A8ABB9AB6EA57F
:1045B0007FA588A999A920E030E040E85FE30E9448
:1045C000A20488232CF481E090E09DA78CA73FC033
:1045D0006EA57FA588A999A920E03FEF4FE757E492
:1045E0000E94420418164CF56AA97BA98CA99DA9C2
:1045F00020E030E040E251E40E949C02DC01CB016B
:10460000BC01CD010E94C600DC01CB019DA78CA797
:104610000FC088EC90E09BA78AA78AA59BA501976D
:10462000F1F79BA78AA78CA59DA501979DA78CA7AD
:104630008CA59DA5009769F724C06EA57FA588A9C4
:1046400099A90E94C600DC01CB019DA78CA78CA56F
:104650009DA599A788A788A599A50197F1F799A77E
:1046600088A70FC06FA978AD89AD9AAD0E94C6002A
:10467000DC01CB018EAB8EA98FA38FA18A95F1F7B8
:104680008FA3A8E3B0E0E8E3F0E08081282F2F704B
:10469000FE01E95AFF4F8081882F90E08295929524
:1046A000907F9827807F9827822B8C93A5E3B0E09A
:1046B000E5E3F0E0808184608C9380E090E0A0E806
:1046C000BFE38BA39CA3ADA3BEA36BA17CA18DA1D3
:1046D0009EA12BEA3AEA4AE250E40E949C02DC01E5
:1046E000CB018F8F98A3A9A3BAA36F8D78A189A1BD
:1046F0009AA120E030E040E85FE30E94A204882312
:104700001CF481E08E8F91C06F8D78A189A19AA150
:1047100020E030E04FE753E40E94420418160CF00A
:104720007BC06BA17CA18DA19EA120E030E04AE777
:1047300054E40E949603DC01CB018A8F9B8FAC8FDF
:10474000BD8F6A8D7B8D8C8D9D8D20E030E04AEF92
:1047500054E40E949C02DC01CB018E8B9F8BA88FBE
:10476000B98F6E897F89888D998D20E030E040E88F
:104770005FE30E94A20488232CF481E090E09D8BEB
:104780008C8B3FC06E897F89888D998D20E03FEFAB
:104790004FE757E40E94420418164CF56A8D7B8D52
:1047A0008C8D9D8D20E030E040E251E40E949C021F
:1047B000DC01CB01BC01CD010E94C600DC01CB01B4
:1047C0009D8B8C8B0FC088EC90E09B8B8A8B8A89A9
:1047D0009B890197F1F79B8B8A8B8C899D89019727
:1047E0009D8B8C8B8C899D89009769F724C06E897D
:1047F0007F89888D998D0E94C600DC01CB019D8B3D
:104800008C8B8C899D89998B888B88899989019754
:10481000F1F7998B888B0FC06F8D78A189A19AA130
:104820000E94C600DC01CB018E8F8E8D8F878F8515
:104830008A95F1F78F87A5E3B0E0E5E3F0E08081AA
:104840008B7F8C9380E090E0A0E0B0E48B879C8726
:10485000AD87BE876B857C858D859E8520E030E0A9
:104860004AEF54E40E949C02DC01CB018F839887BD
:10487000A987BA876F81788589859A8520E030E09D
:1048800040E85FE30E94A20488232CF481E090E0DA
:104890009E838D833FC06F81788589859A8520E0CE
:1048A0003FEF4FE757E40E94420418164CF56B8522
:1048B0007C858D859E8520E030E040E251E40E94B9
:1048C0009C02DC01CB01BC01CD010E94C600DC01D1
:1048D000CB019E838D830FC088EC90E09C838B83FB
:1048E0008B819C810197F1F79C838B838D819E81C5
:1048F00001979E838D838D819E81009769F714C0F7
:104900006F81788589859A850E94C600DC01CB017C
:104910009E838D838D819E819A83898389819A81EB
:104920000197F1F79A838983C95ADF4F0FB6F8943C
:10493000DEBF0FBECDBFCF91DF911F910F910895C4
:104940000F931F93DF93CF93CDB7DEB7C755D040FA
:104950000FB6F894DEBF0FBECDBFFE01E95AFF4F80
:104960008083A5E3B0E0E5E3F0E0808181608C9393
:10497000A5E3B0E0E5E3F0E080818D7F8C93A8E3D0
:10498000B0E0E8E3F0E08081982F9F70FE01E95AE3
:10499000FF4F8081807F892B8C93A5E3B0E0E5E316
:1049A000F0E0808184608C93FE01ED5AFF4F80E03F
:1049B00090E0A0E8BFE380839183A283B3838E015C
:1049C000015B1F4FFE01ED5AFF4F608171818281B3
:1049D00093812BEA3AEA4AE250E40E949C02DC010D
:1049E000CB01F80180839183A283B383FE01E15B55
:1049F000FF4F608171818281938120E030E040E847
:104A00005FE30E94A204882334F4FE01E25BFF4FBF
:104A100081E08083E0C0FE01E15BFF4F6081718136
:104A20008281938120E030E04FE753E40E9442040A
:104A300018160CF0C0C0FE01ED5AFF4F6081718165
:104A40008281938120E030E04AE754E40E9496039B
:104A5000DC01CB01FE01E65BFF4F80839183A283E3
:104A6000B3838E010A5B1F4FFE01E65BFF4F60813F
:104A700071818281938120E030E04AEF54E40E940A
:104A80009C02DC01CB01F80180839183A283B38374
:104A9000FE01EA5BFF4F608171818281938120E09A
:104AA00030E040E85FE30E94A204882344F4FE0162
:104AB000EC5BFF4F81E090E09183808364C0FE0156
:104AC000EA5BFF4F608171818281938120E03FEF3B
:104AD0004FE757E40E94420418160CF043C0FE0151
:104AE000E65BFF4F608171818281938120E030E03D
:104AF00040E251E40E949C02DC01CB018E010C5B80
:104B00001F4FBC01CD010E94C600DC01CB01F801A2
:104B1000918380831FC0FE01EE5BFF4F88EC90E025
:104B200091838083FE01EE5BFF4F8081918101972D
:104B3000F1F7FE01EE5BFF4F91838083DE01AC5BFA
:104B4000BF4FFE01EC5BFF4F808191810197119671
:104B50009C938E93FE01EC5BFF4F808191810097C7
:104B6000D1F642C08E010C5B1F4FFE01EA5BFF4F86
:104B700060817181828193810E94C600DC01CB013A
:104B8000F80191838083DE01A05CBF4FFE01EC5BE6
:104B9000FF4F8081918111969C938E93FE01E05C82
:104BA000FF4F808191810197F1F7FE01E05CFF4F9B
:104BB0009183808319C08E01025B1F4FFE01E15B70
:104BC000FF4F60817181828193810E94C600DC0168
:104BD000CB01F8018083FE01E25BFF4F80818FAF44
:104BE0008FAD8A95F1F78FAFA5E3B0E0E5E3F0E094
:104BF00080818B7F8C9380E090E0A8E4B3E48BAF5E
:104C00009CAFADAFBEAF6BAD7CAD8DAD9EAD2BEAB5
:104C10003AEA4AE250E40E949C02DC01CB018FABED
:104C200098AFA9AFBAAF6FA978AD89AD9AAD20E0C2
:104C300030E040E85FE30E94A20488231CF481E096
:104C40008EAB91C06FA978AD89AD9AAD20E030E010
:104C50004FE753E40E94420418160CF07BC06BAD82
:104C60007CAD8DAD9EAD20E030E04AE754E40E947B
:104C70009603DC01CB018AAB9BABACABBDAB6AA9A5
:104C80007BA98CA99DA920E030E04AEF54E40E9462
:104C90009C02DC01CB018EA79FA7A8ABB9AB6EA588
:104CA0007FA588A999A920E030E040E85FE30E9451
:104CB000A20488232CF481E090E09DA78CA73FC03C
:104CC0006EA57FA588A999A920E03FEF4FE757E49B
:104CD0000E94420418164CF56AA97BA98CA99DA9CB
:104CE00020E030E040E251E40E949C02DC01CB0174
:104CF000BC01CD010E94C600DC01CB019DA78CA7A1
:104D00000FC088EC90E09BA78AA78AA59BA5019776
:104D1000F1F79BA78AA78CA59DA501979DA78CA7B6
:104D20008CA59DA5009769F724C06EA57FA588A9CD
:104D300099A90E94C600DC01CB019DA78CA78CA578
:104D40009DA599A788A788A599A50197F1F799A787
:104D500088A70FC06FA978AD89AD9AAD0E94C60033
:104D6000DC01CB018EAB8EA98FA38FA18A95F1F7C1
:104D70008FA3A8E3B0E0E8E3F0E08081282F2F7054
:104D8000FE01E95AFF4F8081882F90E0829592952D
:104D9000907F9827807F9827822B8C93A5E3B0E0A3
:104DA000E5E3F0E0808184608C9380E090E0A0E80F
:104DB000BFE38BA39CA3ADA3BEA36BA17CA18DA1DC
:104DC0009EA12BEA3AEA4AE250E40E949C02DC01EE
:104DD000CB018F8F98A3A9A3BAA36F8D78A189A1C6
:104DE0009AA120E030E040E85FE30E94A20488231B
:104DF0001CF481E08E8F91C06F8D78A189A19AA15A
:104E000020E030E04FE753E40E94420418160CF013
:104E10007BC06BA17CA18DA19EA120E030E04AE780
:104E200054E40E949603DC01CB018A8F9B8FAC8FE8
:104E3000BD8F6A8D7B8D8C8D9D8D20E030E04AEF9B
:104E400054E40E949C02DC01CB018E8B9F8BA88FC7
:104E5000B98F6E897F89888D998D20E030E040E898
:104E60005FE30E94A20488232CF481E090E09D8BF4
:104E70008C8B3FC06E897F89888D998D20E03FEFB4
:104E80004FE757E40E94420418164CF56A8D7B8D5B
:104E90008C8D9D8D20E030E040E251E40E949C0228
:104EA000DC01CB01BC01CD010E94C600DC01CB01BD
:104EB0009D8B8C8B0FC088EC90E09B8B8A8B8A89B2
:104EC0009B890197F1F79B8B8A8B8C899D89019730
:104ED0009D8B8C8B8C899D89009769F724C06E8986
:104EE0007F89888D998D0E94C600DC01CB019D8B46
:104EF0008C8B8C899D89998B888B8889998901975E
:104F0000F1F7998B888B0FC06F8D78A189A19AA139
:104F10000E94C600DC01CB018E8F8E8D8F878F851E
:104F20008A95F1F78F87A5E3B0E0E5E3F0E08081B3
:104F30008B7F8C9380E090E0A0E0B0E48B879C872F
:104F4000AD87BE876B857C858D859E8520E030E0B2
:104F50004AEF54E40E949C02DC01CB018F839887C6
:104F6000A987BA876F81788589859A8520E030E0A6
:104F700040E85FE30E94A20488232CF481E090E0E3
:104F80009E838D833FC06F81788589859A8520E0D7
:104F90003FEF4FE757E40E94420418164CF56B852B
:104FA0007C858D859E8520E030E040E251E40E94C2
:104FB0009C02DC01CB01BC01CD010E94C600DC01DA
:104FC000CB019E838D830FC088EC90E09C838B8304
:104FD0008B819C810197F1F79C838B838D819E81CE
:104FE00001979E838D838D819E81009769F714C000
:104FF0006F81788589859A850E94C600DC01CB0186
:105000009E838D838D819E819A83898389819A81F4
:105010000197F1F79A838983C95ADF4F0FB6F89445
:10502000DEBF0FBECDBFCF91DF911F910F910895CD
:10503000DF93CF93CDB7DEB76C970FB6F894DEBF92
:105040000FBECDBF82E060E041E00E94DF0982E058
:1050500061E041E00E94DF0982E062E041E00E94FD
:10506000DF0981E064E041E00E94DF0981E065E062
:1050700041E00E94DF0981E066E041E00E94DF0933
:1050800081E067E041E00E94DF0980E090E0A8E471
:10509000B2E4898F9A8FAB8FBC8F698D7A8D8B8D9F
:1050A0009C8D20E030E04AEF54E40E949C02DC0139
:1050B000CB018D8B9E8BAF8BB88F6D897E898F894D
:1050C000988D20E030E040E85FE30E94A20488234E
:1050D0002CF481E090E09C8B8B8B3FC06D897E89A6
:1050E0008F89988D20E03FEF4FE757E40E944204FC
:1050F00018164CF5698D7A8D8B8D9C8D20E030E0F3
:1051000040E251E40E949C02DC01CB01BC01CD01D4
:105110000E94C600DC01CB019C8B8B8B0FC088ECFE
:1051200090E09A8B898B89899A890197F1F79A8BFC
:10513000898B8B899C8901979C8B8B8B8B899C8914
:10514000009769F714C06D897E898F89988D0E94B8
:10515000C600DC01CB019C8B8B8B8B899C89988B47
:105160008F878F8598890197F1F7988B8F8783E3D5
:105170000E94282182E30E94282188E20E9428219F
:105180008CE00E94282186E00E94282181E00E9474
:10519000282180E090E0A0E0B0E48B879C87AD8779
:1051A000BE876B857C858D859E8520E030E04AEF4B
:1051B00054E40E949C02DC01CB018F839887A9876D
:1051C000BA876F81788589859A8520E030E040E84C
:1051D0005FE30E94A20488232CF481E090E09E8388
:1051E0008D833FC06F81788589859A8520E03FEF68
:1051F0004FE757E40E94420418164CF56B857C85F6
:105200008D859E8520E030E040E251E40E949C02C2
:10521000DC01CB01BC01CD010E94C600DC01CB0149
:105220009E838D830FC088EC90E09C838B838B8161
:105230009C810197F1F79C838B838D819E810197DF
:105240009E838D838D819E81009769F714C06F8145
:10525000788589859A850E94C600DC01CB019E83F2
:105260008D838D819E819A83898389819A8101971B
:10527000F1F79A8389836C960FB6F894DEBF0FBE60
:10528000CDBFCF91DF910895DF93CF9300D000D0B1
:10529000CDB7DEB79C838B831A8219820FC0298118
:1052A0003A818B819C81FC01E20FF31F80810E9477
:1052B000A02489819A8101969A83898329813A81E0
:1052C0008B819C81FC01E20FF31F8081882339F7D9
:1052D0000F900F900F900F90CF91DF910895DF9373
:1052E000CF9300D000D0CDB7DEB789836A835C83CB
:1052F0004B838981882349F48A81803130F48A8103
:105300008F7080680E9428210BC08981813041F410
:105310008A81803128F48A818F70806C0E942821D4
:105320008B819C810E9444290F900F900F900F90C9
:10533000CF91DF910895DF93CF93CDB7DEB72E974E
:105340000FB6F894DEBF0FBECDBF81E00E942821CA
:1053500080E090E0A0E0B0E48B879C87AD87BE87BB
:105360006B857C858D859E8520E030E04AEF54E496
:105370000E949C02DC01CB018F839887A987BA87A2
:105380006F81788589859A8520E030E040E85FE389
:105390000E94A20488232CF481E090E09E838D83F8
:1053A0003FC06F81788589859A8520E03FEF4FE780
:1053B00057E40E94420418164CF56B857C858D8558
:1053C0009E8520E030E040E251E40E949C02DC0136
:1053D000CB01BC01CD010E94C600DC01CB019E8344
:1053E0008D830FC088EC90E09C838B838B819C81A4
:1053F0000197F1F79C838B838D819E8101979E831A
:105400008D838D819E81009769F714C06F817885A7
:1054100089859A850E94C600DC01CB019E838D831D
:105420008D819E819A83898389819A810197F1F781
:105430009A83898380E80E9428212E960FB6F894DB
:10544000DEBF0FBECDBFCF91DF910895DF93CF9325
:1054500000D00F92CDB7DEB789838981282F30E045
:105460003B832A838A819B81009731F02A813B818B
:105470002130310561F010C082E060E040E00E9420
:10548000DF0982E060E041E00E94E30805C082E0BD
:1054900060E040E00E94DF090F900F900F90CF91E5
:1054A000DF910895DF93CF93CDB7DEB782E060E060
:1054B0000E946908CF91DF910895DF93CF93CDB714
:1054C000DEB783E060E041E00E94DF0983E061E055
:1054D00041E00E94DF0983E062E041E00E94DF09D1
:1054E00083E063E041E00E94DF09CF91DF910895FE
:1054F000DF93CF93CDB7DEB7E8970FB6F894DEBF52
:105500000FBECDBF83E060E041E00E94E30883E08E
:1055100061E040E00E94E30883E062E040E00E9436
:10552000E30883E063E040E00E94E30880E090E06D
:10553000A0EAB0E48DAB9EABAFABB8AF6DA97EA9CE
:105540008FA998AD20E030E04AEF54E40E949C021D
:10555000DC01CB0189AB9AABABABBCAB69A97AA937
:105560008BA99CA920E030E040E85FE30E94A20400
:1055700088232CF481E090E098AB8FA73FC069A905
:105580007AA98BA99CA920E03FEF4FE757E40E943E
:10559000420418164CF56DA97EA98FA998AD20E09C
:1055A00030E040E251E40E949C02DC01CB01BC01EE
:1055B000CD010E94C600DC01CB0198AB8FA70FC0C4
:1055C00088EC90E09EA78DA78DA59EA50197F1F789
:1055D0009EA78DA78FA598A9019798AB8FA78FA598
:1055E00098A9009769F714C069A97AA98BA99CA901
:1055F0000E94C600DC01CB0198AB8FA78FA598A9AC
:105600009CA78BA78BA59CA50197F1F79CA78BA7BF
:1056100083E060E040E00E94E30883E061E041E075
:105620000E94E30883E062E040E00E94E30883E038
:1056300063E040E00E94E30880E090E0A0EAB0E48C
:105640008FA398A7A9A7BAA76FA178A589A59AA59E
:1056500020E030E04AEF54E40E949C02DC01CB01E0
:105660008BA39CA3ADA3BEA36BA17CA18DA19EA186
:1056700020E030E040E85FE30E94A20488232CF49D
:1056800081E090E09AA389A33FC06BA17CA18DA18A
:105690009EA120E03FEF4FE757E40E944204181616
:1056A0004CF56FA178A589A59AA520E030E040E2ED
:1056B00051E40E949C02DC01CB01BC01CD010E949F
:1056C000C600DC01CB019AA389A30FC088EC90E04F
:1056D00098A38F8F8F8D98A10197F1F798A38F8F43
:1056E00089A19AA101979AA389A389A19AA1009758
:1056F00069F714C06BA17CA18DA19EA10E94C60078
:10570000DC01CB019AA389A389A19AA19E8F8D8FD9
:105710008D8D9E8D0197F1F79E8F8D8F83E060E0D8
:1057200040E00E94E30883E061E040E00E94E3087B
:1057300083E062E041E00E94E30883E063E040E050
:105740000E94E30880E090E0A0EAB0E4898F9A8F9D
:10575000AB8FBC8F698D7A8D8B8D9C8D20E030E076
:105760004AEF54E40E949C02DC01CB018D8B9E8B9E
:10577000AF8BB88F6D897E898F89988D20E030E05E
:1057800040E85FE30E94A20488232CF481E090E0CB
:105790009C8B8B8B3FC06D897E898F89988D20E093
:1057A0003FEF4FE757E40E94420418164CF5698D0D
:1057B0007A8D8B8D9C8D20E030E040E251E40E9498
:1057C0009C02DC01CB01BC01CD010E94C600DC01C2
:1057D000CB019C8B8B8B0FC088EC90E09A8B898BD4
:1057E00089899A890197F1F79A8B898B8B899C8992
:1057F00001979C8B8B8B8B899C89009769F714C0D0
:105800006D897E898F89988D0E94C600DC01CB014D
:105810009C8B8B8B8B899C89988B8F878F859889A4
:105820000197F1F7988B8F8783E060E040E00E945A
:10583000E30883E061E040E00E94E30883E062E087
:1058400040E00E94E30883E063E041E00E94E30857
:1058500080E090E0A0EAB0E48B879C87AD87BE87AC
:105860006B857C858D859E8520E030E04AEF54E491
:105870000E949C02DC01CB018F839887A987BA879D
:105880006F81788589859A8520E030E040E85FE384
:105890000E94A20488232CF481E090E09E838D83F3
:1058A0003FC06F81788589859A8520E03FEF4FE77B
:1058B00057E40E94420418164CF56B857C858D8553
:1058C0009E8520E030E040E251E40E949C02DC0131
:1058D000CB01BC01CD010E94C600DC01CB019E833F
:1058E0008D830FC088EC90E09C838B838B819C819F
:1058F0000197F1F79C838B838D819E8101979E8315
:105900008D838D819E81009769F714C06F817885A2
:1059100089859A850E94C600DC01CB019E838D8318
:105920008D819E819A83898389819A810197F1F77C
:105930009A838983E8960FB6F894DEBF0FBECDBF79
:10594000CF91DF910895DF93CF93CDB7DEB7E8977E
:105950000FB6F894DEBF0FBECDBF83E063E041E039
:105960000E94E30883E062E040E00E94E30883E0F5
:1059700061E040E00E94E30883E060E040E00E94D4
:10598000E30880E090E0A0EAB0E48DAB9EABAFAB63
:10599000B8AF6DA97EA98FA998AD20E030E04AEF9D
:1059A00054E40E949C02DC01CB0189AB9AABABAB07
:1059B000BCAB69A97AA98BA99CA920E030E040E89A
:1059C0005FE30E94A20488232CF481E090E098AB6E
:1059D0008FA73FC069A97AA98BA99CA920E03FEFB6
:1059E0004FE757E40E94420418164CF56DA97EA9B2
:1059F0008FA998AD20E030E040E251E40E949C0283
:105A0000DC01CB01BC01CD010E94C600DC01CB0151
:105A100098AB8FA70FC088EC90E09EA78DA78DA5AF
:105A20009EA50197F1F79EA78DA78FA598A901972D
:105A300098AB8FA78FA598A9009769F714C069A99B
:105A40007AA98BA99CA90E94C600DC01CB0198AB66
:105A50008FA78FA598A99CA78BA78BA59CA501971D
:105A6000F1F79CA78BA783E063E040E00E94E30886
:105A700083E062E041E00E94E30883E061E040E00F
:105A80000E94E30883E060E040E00E94E30880E0D9
:105A900090E0A0EAB0E48FA398A7A9A7BAA76FA146
:105AA00078A589A59AA520E030E04AEF54E40E9449
:105AB0009C02DC01CB018BA39CA3ADA3BEA36BA175
:105AC0007CA18DA19EA120E030E040E85FE30E9430
:105AD000A20488232CF481E090E09AA389A33FC01C
