:100000000C942A000C945A0F0C9447000C9447004F
:100010000C9447000C9447000C9447000C94470044
:100020000C9447000C9447000C9447000C94F20E7B
:100030000C9447000C94A70F0C9447000C944700B5
:100040000C9447000C9447000C9447000C94470014
:100050000C94470011241FBECFE5D8E0DEBFCDBF12
:1000600011E0A0E6B0E0E2E6F2E202C005900D92F7
:10007000A438B107D9F711E0A4E8B1E001C01D929E
:10008000A03CB107E1F70E948F100C942F110C9443
:100090000000EF92FF920F931F937B018C0120E0F1
:1000A00030E040E05FE40E94C50388238CF0C80183
:1000B000B70120E030E040E05FE40E94C1010E940F
:1000C000F5039B01AC01205030404040504806C031
:1000D000C801B7010E94F5039B01AC01B901CA0137
:1000E0001F910F91FF90EF900895A0E0B0E0EBE733
:1000F000F0E00C94F810DC012B01FA019C91923095
:1001000008F439C1EB018881823008F433C194309E
:1001100069F4843009F02FC111969C91119789815F
:10012000981709F428C1A0E6B0E025C1843009F48D
:1001300021C18230A9F4923009F01DC19A01AD01AC
:1001400088E0EA010990AE01E90109929E0181501F
:10015000C1F7E201898111969C918923818308C1AD
:10016000923009F407C112962D903C901397EB0141
:100170008A819B811496AD90BD90CD90DC901797AD
:10018000EC80FD800E811F819101281B390BB90184
:1001900037FF04C066277727621B730B6032710537
:1001A0000CF061C0121613066CF537014801062EDB
:1001B00004C096948794779467940A94D2F721E0C8
:1001C00030E040E050E004C0220F331F441F551FB1
:1001D0006A95D2F721503040404050402E213F21B7
:1001E00040235123211531054105510521F021E01E
:1001F00030E040E050E079018A01E628F72808293C
:1002000019293CC0232BD1F1260E371E350146019A
:10021000062E04C096948794779467940A94D2F734
:1002200021E030E040E050E004C0220F331F441FC3
:10023000551F6A95D2F721503040404050402A2146
:100240003B214C215D21211531054105510521F04E
:1002500021E030E040E050E059016A01A628B728CB
:10026000C828D9280BC0821593052CF01C01AA249C
:10027000BB24650103C0EE24FF24870111969C91E5
:10028000D20111968C91981709F445C0992339F041
:10029000A80197012A193B094C095D0906C0A6016E
:1002A00095012E193F09400B510B57FD08C01182D3
:1002B0003382228224833583468357831DC081E0A5
:1002C00081833382228288279927DC01821B930B4A
:1002D000A40BB50B84839583A683B7830DC0220F2F
:1002E000331F441F551F24833583468357838281E0
:1002F000938101979383828324813581468157813D
:10030000DA01C9010197A109B1098F5F9F4FAF4F72
:10031000BF4328F30BC0918333822282EA0CFB1C7B
:100320000C1D1D1DE482F5820683178383E0808304
:10033000248135814681578157FF1AC0C901AA27F8
:1003400097FDA095BA2F81709070A070B0705695EF
:10035000479537952795822B932BA42BB52B848318
:100360009583A683B7838281938101969383828349
:10037000DF0101C0D201CD01CDB7DEB7E2E10C94BF
:100380001411A0E2B0E0E7ECF1E00C9404116983F1
:100390007A838B839C832D833E834F835887E9E048
:1003A000EE2EF12CEC0EFD1ECE010196B7010E943F
:1003B000E6058E010F5E1F4FCE010596B8010E9423
:1003C000E6058A8991E089278A8BC701B801AE01C9
:1003D000475E5F4F0E9475000E941105A096E6E0FF
:1003E0000C942011A0E2B0E0E8EFF1E00C940411CD
:1003F00069837A838B839C832D833E834F835887C5
:10040000F9E0EF2EF12CEC0EFD1ECE010196B701A6
:100410000E94E6058E010F5E1F4FCE010596B801C2
:100420000E94E605C701B801AE01475E5F4F0E941A
:1004300075000E941105A096E6E00C942011A0E240
:10044000B0E0E5E2F2E00C94F81069837A838B83E4
:100450009C832D833E834F835887CE010196BE0136
:10046000675F7F4F0E94E605CE010596BE016F5E75
:100470007F4F0E94E6059985923088F08989823005
:10048000C8F0943019F4823051F404C0843029F457
:10049000923081F480E690E0C6C0923049F420E0CA
:1004A0009A858A89981321E02A87CE010996BBC0D4
:1004B000823049F420E09A858A89981321E02A8BBA
:1004C000CE014196B0C02D843E844F8458886D88FB
:1004D0007E888F88988CEE24FF248701AA24BB2471
:1004E000650140E050E060E070E0E0E0F0E0C10174
:1004F00081709070892BE9F0E60CF71C081D191D1E
:100500009A01AB012A0D3B1D4C1D5D1D80E090E062
:10051000A0E0B0E0E614F7040805190520F481E036
:1005200090E0A0E0B0E0BA01A901480F591F6A1F8E
:100530007B1FAA0CBB1CCC1CDD1C97FE08C081E0F5
:1005400090E0A0E0B0E0A82AB92ACA2ADB2A3196B6
:10055000E032F10549F0660C771C881C991C569412
:10056000479437942794C3CFFA85EA892B893C892D
:100570008B859C85280F391F2E5F3F4F17C0CA01FE
:1005800081709070892B61F016950795F794E79428
:1005900080E090E0A0E0B0E8E82AF92A0A2B1B2BC3
:1005A00076956795579547952F5F3F4F77FDE7CF36
:1005B0000CC0440F551F661F771F17FD4160EE0CDE
:1005C000FF1C001F111F21503040403090E05907A0
:1005D00090E0690790E4790760F32B8F3C8FDB0193
:1005E000CA018F779070A070B07080349105A1051A
:1005F000B10561F447FD0AC0E114F10401051105DC
:1006000029F0405C5F4F6F4F7F4F40781A8EFE1786
:1006100011F081E08A8F4D8F5E8F6F8F78A383E01A
:10062000898FCE0149960E941105A096E2E10C94B3
:100630001411A8E1B0E0EFE1F3E00C94001169833C
:100640007A838B839C832D833E834F835887B9E0C5
:10065000EB2EF12CEC0EFD1ECE010196B7010E948F
:10066000E6058E010F5E1F4FCE010596B8010E9470
:10067000E6052985223008F47EC03989323010F42D
:10068000B8017CC08A859A8989278A87243011F02D
:10069000223031F4231709F06EC060E670E06EC0BE
:1006A000343039F41D861E861F86188A1C861B86E8
:1006B00004C0323021F484E08987B7015FC02B8504
:1006C0003C858B899C89281B390B3C872B87ED84C3
:1006D000FE840F851889AD88BE88CF88D88CEA142F
:1006E000FB040C051D0540F4EE0CFF1C001F111F40
:1006F000215030403C872B8720E030E040E050E044
:1007000080E090E0A0E0B0E460E070E0EA14FB0478
:100710000C051D0540F0282B392B4A2B5B2BEA18C2
:10072000FB080C091D09B695A79597958795EE0CC2
:10073000FF1C001F111F6F5F7F4F6F31710531F775
:10074000DA01C9018F779070A070B0708034910584
:10075000A105B10561F427FD0AC0E114F10401050A
:10076000110529F0205C3F4F4F4F5F4F20782D87B8
:100770003E874F87588BBE01675F7F4FCB010E943A
:1007800011056896EAE00C941C11A8E1B0E0EBECCE
:10079000F3E00C94041169837A838B839C832D830B
:1007A0003E834F83588789E0E82EF12CEC0EFD1E26
:1007B000CE010196B7010E94E6058E010F5E1F4F24
:1007C000CE010596B8010E94E6058985823040F089
:1007D0008989823028F0C701B8010E945E0601C0F5
:1007E0008FEF6896E6E00C942011ACE0B0E0EBEF00
:1007F000F3E00C94081169837A838B839C83CE0188
:100800000196BE016B5F7F4F0E94E6058D818230AD
:1008100061F1823050F1843021F48E81882351F1CE
:100820002EC02F81388537FD20C06E812F313105D4
:100830001CF06623F9F023C08EE190E0821B930B3D
:1008400029853A854B855C8504C056954795379533
:1008500027958A95D2F76623B1F05095409530954B
:1008600021953F4F4F4F5F4F0EC020E030E040E0FA
:1008700050E009C02FEF3FEF4FEF5FE704C020E0EB
:1008800030E040E050E8B901CA012C96E2E00C9457
:100890002411A8E0B0E0EFE4F4E00C9400117B0137
:1008A0008C01611571058105910519F482E0898338
:1008B00060C083E089838EE1C82ED12CDC82CB829C
:1008C000ED82FE820F831887C801B7010E94C2041F
:1008D000FC013197F7FF3BC0222733272E1B3F0B2C
:1008E00057016801022E04C0D694C794B794A79408
:1008F0000A94D2F740E050E060E070E081E090E0E0
:10090000A0E0B0E004C0880F991FAA1FBB1F2A9562
:10091000D2F70197A109B1098E219F21A023B1230C
:100920000097A105B10521F041E050E060E070E0E2
:100930004A295B296C297D294D835E836F837887E3
:100940008EE190E08E1B9F0B9C838B8312C03097AF
:1009500081F00E2E04C0EE0CFF1C001F111F0A9424
:10096000D2F7ED82FE820F831887CE1ADF0ADC826F
:10097000CB821A82CE0101960E9411052896EAE0E8
:100980000C941C11EF92FF920F931F937B018C012B
:1009900080E0E81680E0F80681E0080780E01807AC
:1009A00088F48FEFE816F1040105110531F028F005
:1009B00088E090E0A0E0B0E017C080E090E0A0E028
:1009C000B0E012C080E0E81680E0F80680E008079A
:1009D00081E0180728F088E190E0A0E0B0E004C0D2
:1009E00080E190E0A0E0B0E020E230E040E050E0C4
:1009F000281B390B4A0B5B0B04C016950795F7941F
:100A0000E7948A95D2F7F701E859FF4F8081281BB8
:100A1000310941095109C9011F910F91FF90EF90D0
:100A20000895DF92EF92FF920F931F93FC01E480F1
:100A3000F58006811781D1808081823048F480E082
:100A400090E0A0E1B0E0E82AF92A0A2B1B2BA5C010
:100A5000843009F49FC0823021F4EE24FF24870102
:100A600005C0E114F1040105110519F4E0E0F0E01E
:100A700096C0628173819FEF623879070CF05BC08A
:100A800022E83FEF261B370B2A3131052CF020E0FE
:100A900030E040E050E02AC0B801A701022E04C0B7
:100AA00076956795579547950A94D2F781E090E03F
:100AB000A0E0B0E004C0880F991FAA1FBB1F2A95B1
:100AC000D2F70197A109B1098E219F21A023B1235B
:100AD0000097A105B10521F081E090E0A0E0B0E031
:100AE0009A01AB01282B392B4A2B5B2BDA01C90168
:100AF0008F779070A070B07080349105A105B1051A
:100B000039F427FF09C0205C3F4F4F4F5F4F04C0AF
:100B1000215C3F4F4F4F5F4FE0E0F0E02030A0E01E
:100B20003A07A0E04A07A0E45A0710F0E1E0F0E03D
:100B300079018A0127C06038710564F5FB01E1582D
:100B4000FF4FD801C7018F779070A070B0708034CC
:100B50009105A105B10539F4E7FE0DC080E490E0F0
:100B6000A0E0B0E004C08FE390E0A0E0B0E0E80EC9
:100B7000F91E0A1F1B1F17FF05C016950795F7944E
:100B8000E794319687E016950795F794E7948A9550
:100B9000D1F705C0EE24FF248701EFEFF0E06E2FC0
:100BA000679566276795902F9F77D794DD24D79414
:100BB0008E2F8695492F462B582F5D29B701CA01E4
:100BC0001F910F91FF90EF90DF900895FC01DB01E2
:100BD000408151812281622F6F7770E0221F22278E
:100BE000221F9381892F880F822B282F30E0991F95
:100BF0009927991F11969C93119721153105A9F5F5
:100C0000411551056105710511F482E037C082E894
:100C10009FEF13969C938E9312979A01AB0167E016
:100C2000220F331F441F551F6A95D1F783E08C9321
:100C30000DC0220F331F441F551F12968D919C919A
:100C40001397019713969C938E931297203080E010
:100C5000380780E0480780E4580758F314962D932E
:100C60003D934D935C93179708952F3F310579F489
:100C7000411551056105710519F484E08C930895BF
:100C800064FF03C081E08C9312C01C9210C02F57E8
:100C9000304013963C932E93129783E08C9387E019
:100CA000440F551F661F771F8A95D1F770641496FD
:100CB0004D935D936D937C93179708951F93DC017B
:100CC000FB019C91923008F447C08081823008F487
:100CD00043C0943051F411961C91843099F5818170
:100CE000682F70E0611B71093FC0843021F09230A1
:100CF00031F48230B9F18181882389F12DC01196B8
:100D00001C9111978230F1F081811817D9F4129655
:100D10002D913C911397828193818217930794F0D0
:100D200028173907BCF014968D919D910D90BC91B8
:100D3000A02D2481358146815781281739074A071C
:100D40005B0718F4112341F00AC082179307A40728
:100D5000B50740F4112319F061E070E005C06FEFB2
:100D60007FEF02C060E070E0CB011F9108955F9BB0
:100D7000FECF8CB108955D9BFECF5D9A8CB98BB18F
:100D8000829586958695837080FD03C05E9A5E9BF2
:100D9000FDCF089583E060E040E00E94BA0783E061
:100DA00061E041E00E94BA0788E98AB986E880BD1F
:100DB00083E389B910BC08950E94CA068AB1806C89
:100DC0008AB9789408953F983E9A3D98309A319A1E
:100DD000329A379A089597B1907797B997B1982B2F
:100DE00097B9369A349BFECF349A24B135B1C901F4
:100DF0000895813059F0813028F0823049F08330F5
:100E000019F008956ABB089561BB089567BB089502
:100E100064BB0895813059F0813028F0823049F068
:100E2000833019F008956BBB089562BB089568BBC9
:100E3000089565BB08958130D1F0813030F0823063
:100E4000F9F0833059F080E0089589B390E002C052
:100E5000959587956A95E2F78170089580B390E043
:100E600002C0959587956A95E2F78170089586B3DB
:100E700090E002C0959587956A95E2F78170089594
:100E800083B390E002C0959587956A95E2F78170EB
:100E90000895413081F0813049F18130B8F42BB3AD
:100EA00081E090E002C0880F991F6A95E2F7809573
:100EB00082238BBB0895813009F446C0813010F144
:100EC000823009F44CC08330A1F10895823029F1B9
:100ED0008330D9F722B381E090E002C0880F991FD8
:100EE0006A95E2F78095822382BB089528B381E05A
:100EF00090E002C0880F991F6A95E2F780958223DF
:100F000088BB08952BB381E090E002C0880F991F41
:100F10006A95E2F7282B2BBB089525B381E090E07A
:100F200002C0880F991F6A95E2F78095822385BBDE
:100F3000089522B381E090E002C0880F991F6A955E
:100F4000E2F7282B22BB089528B381E090E002C08D
:100F5000880F991F6A95E2F7282B28BB089525B3BF
:100F600081E090E002C0880F991F6A95E2F7282B74
:100F700025BB0895413081F0813049F18130B8F4CA
:100F80002AB381E090E002C0880F991F6A95E2F7CA
:100F9000809582238ABB0895813009F446C0813050
:100FA00010F1823009F44CC08330A1F108958230F1
:100FB00029F18330D9F721B381E090E002C0880F96
:100FC000991F6A95E2F78095822381BB089527B324
:100FD00081E090E002C0880F991F6A95E2F7809542
:100FE000822387BB08952AB381E090E002C0880F76
:100FF000991F6A95E2F7282B2ABB089524B381E054
:1010000090E002C0880F991F6A95E2F780958223CD
:1010100084BB089521B381E090E002C0880F991F3E
:101020006A95E2F7282B21BB089527B381E090E071
:1010300002C0880F991F6A95E2F7282B27BB0895F5
:1010400024B381E090E002C0880F991F6A95E2F70F
:10105000282B24BB089508950E944F0885B782600D
:1010600085BF85B78E7F85BF85B7886085BF85B70B
:101070008B7F85BF8BB780648BBF8BB780688BBF3E
:1010800083E063E040E00E94BA0783E063E041E070
:101090000E94490708958FB78F778FBF08958FB744
:1010A00080688FBF08958CBF08958CBF089583B763
:1010B000806483BF83B7886083BF83B78F7E83BF1D
:1010C00083B7806283BF83B78E7F83BF83B782601D
:1010D00083BF83B78B7F83BF81E063E041E00E94E1
:1010E000BA07089583B7806483BF83B7886083BFDE
:1010F00083B78E7F83BF83B7826083BF83B78B7FC5
:1011000083BF83B78F7E83BF83B7806283BF81E055
:1011100063E041E00E94BA07089583B7806483BF0B
:1011200083B7886083BF83B78E7F83BF83B78260B6
:1011300083BF83B78B7F83BF83B7806183BF83B750
:10114000806283BF81E063E041E00E94BA070895B6
:101150000E944F0883B78F7B83BF83B7886083BFAC
:1011600083B78E7F83BF83B7826083BF83B78B7F54
:1011700083BF8FEF8CBF89B7826089BF08950E94BB
:101180004F0883B78F7B83BF83B7877F83BF83B7C6
:101190008E7F83BF83B7826083BF83B78B7F83BF1C
:1011A00089B7816089BF08959BBD8ABD089599BDA7
:1011B00088BD089597BD86BD08959DBD8CBD0895D9
:1011C000882319F0813021F008957BBD6ABD089510
:1011D00079BD68BD08952FB522602FBD2FB52E7F34
:1011E0002FBD2EB528602EBD2EB520612EBD2FB58A
:1011F0002F7B2FBD2FB520682FBD97BD86BD6830D2
:1012000041F16034B9F0613031F083E065E041E0F4
:101210000E94BA0708958EB581608EBD8EB58D7F10
:101220008EBD8EB58B7F8EBD83E065E041E00E9470
:10123000BA0708958EB581608EBD8EB582608EBD71
:101240008EB58B7F8EBD83E065E041E00E94BA07DA
:1012500008958EB58E7FF0CF8FB582608FBD8FB52C
:101260008E7F8FBD8EB588608EBD8EB580618EBD40
:101270008FB580628FBD8FB58F7E8FBD8EB582603A
:101280008EBD83E064E041E00E94BA0708958FB507
:1012900082608FBD8FB58E7F8FBD8EB588608EBD0D
:1012A0008EB580618EBD8FB580688FBD8FB58F7B09
:1012B0008FBD8EB582608EBD83E065E041E00E9407
:1012C000BA0708950F931F938C010E944F088FB5A2
:1012D0008E7F8FBD8FB582608FBD8EB5877F8EBDAF
:1012E0008EB58F7E8EBD19BD08BD8EB582608EBD58
:1012F00089B7886089BF1F910F9108950F931F933D
:101300008C010E944F088FB58E7F8FBD8FB5826094
:101310008FBD8EB5877F8EBD8EB58F7E8EBD1BBD7A
:101320000ABD8EB582608EBD89B7806189BF1F916D
:101330000F9108950E944F088FB58E7F8FBD8FB596
:101340008D7F8FBD8EB5877F8EBD8EB58F7E8EBD16
:101350008EB582608EBD89B7846089BF08950F9372
:101360001F93CF93DF93CCE7D1E000E010E081E062
:10137000688140E00E94490781E0609178010E9405
:101380001B07882331F181E0609179010E941B07DE
:10139000882399F181E060917A010E941B078823DC
:1013A00081F181E060917B010E941B07882369F134
:1013B00081E0699141E00E9449070F5F1F4F0430AF
:1013C0001105A9F69FEF892FDF91CF911F910F9102
:1013D0000895E0E0F0E090E0EE0FFF1FEE0FFF1F3A
:1013E000E00FF11FE859FE4F808180938001892F23
:1013F000DF91CF911F910F910895E1E0F0E091E02E
:10140000EBCFE2E0F0E092E0E7CFE3E0F0E093E062
:10141000E3CF0F931F93CF93DF938FEF80938001E0
:10142000C8E7D1E00CE711E081E0688140E00E946C
:10143000BA0781E0699141E00E94490781E0F80123
:10144000608141E00E94BA0781E0F80161918F015B
:1014500041E00E944907F1E0CC37DF0729F7DF912F
:10146000CF911F910F910895CF92DF92EF92FF924B
:101470000F931F93CF93DF930E94090A0E94AF0935
:10148000C82EDD24EE24FF24870188E791E0C80EF2
:10149000D91EC8ECD0E081E0D6016C910E941B07F8
:1014A0008823B9F420E137E2CE010197F1F721500A
:1014B0003040D1F788EE93E0A0E0B0E0E80EF91EEE
:1014C0000A1F1B1F81E0D6016C910E941B07882315
:1014D00049F3B701C801DF91CF911F910F91FF90A0
:1014E000EF90DF90CF9008950E94090A0E94AF0903
:1014F0009091810180918001981731F09F3F31F0E8
:10150000809381018FEF08958FEF0895809381017B
:101510000895823009F44BC0833030F0833009F4F1
:101520004AC0843079F108958823A9F481E064E009
:1015300041E00E94490781E065E040E00E944907E0
:1015400081E066E041E00E94490781E067E040E019
:101550000E9449070895813031F781E064E040E05E
:101560000E94490781E065E041E00E94490781E06F
:1015700066E040E00E94490781E067E041E00E94A8
:101580004907089581E064E040E00E94490781E056
:1015900065E040E00E94490781E066E040E00E948B
:1015A000490781E067E040E00E944907089581E033
:1015B00064E040E0BECF81E064E041E00E94490782
:1015C00081E065E040E00E94490781E066E040E09C
:1015D0000E94490781E067E040E00E9449070895C2
:1015E00081E064E041E00E94BA0781E065E041E00B
:1015F0000E94BA0781E066E041E00E94BA0781E0FC
:1016000067E041E00E94BA070895A898A99898B3A6
:10161000282F207F9F70292B28BBAA9A22E0922F87
:101620009A95F1F7AA98E0E9F1E03197F1F798B3CC
:101630008295807F9F70982B98BBAA9A2A95F1F784
:10164000AA9880EA9FE00197F1F70895A89AA998CF
:1016500098B3282F207F9F70292B28BBAA9A22E0BD
:10166000922F9A95F1F7AA98E0E9F1E03197F1F716
:1016700098B38295807F9F70982B98BBAA9A2A95E1
:10168000F1F7AA9880EA9FE00197F1F70895EF92A9
:10169000FF921F93DF93CF93CDB7DEB72A970FB694
:1016A000F894DEBF0FBECDBF9C01009781F110E022
:1016B0007E010894E11CF11CF701E10FF11DC90145
:1016C0006AE070E00E94C210805D8083C9016AE018
:1016D00070E00E94C2109B011F5F6115710561F7E8
:1016E000112349F01150F701E10FF11D80810E9493
:1016F000260B1123B9F72A960FB6F894DEBF0FBE5A
:10170000CDBFCF91DF911F91FF90EF90089580E3BF
:101710000E94260BF0CFCF93DF93FC0180818823BA
:1017200039F0EF010E94260B898121968823D1F799
:10173000DF91CF910895CF93DF93EA01882341F49D
:101740006031A8F0CE010E948B0BDF91CF910895FC
:101750008130C1F76031B0F76F70862F806C0E94C6
:10176000050BCE010E948B0BDF91CF9108956F7016
:10177000862F80680E94050BCE010E948B0BDF91A3
:10178000CF91089581E00E94050B80EA9FE00197C8
:10179000F1F780E80E94050B089582E060E041E0E7
:1017A0000E94BA0782E061E041E00E94BA0782E04D
:1017B00062E041E00E94BA0781E064E041E00E94FB
:1017C000BA0781E065E041E00E94BA0781E066E087
:1017D00041E00E94BA0781E067E041E00E94BA0759
:1017E00024EF31E048EC50E0CA010197F1F72150B5
:1017F0003040D1F783E30E94050B82E30E94050B82
:1018000088E20E94050B8CE00E94050B86E00E9496
:10181000050B81E00E94050B80EA9FE00197F1F73C
:10182000089583E06FEF0E94F90682E060E041E0F6
:101830000E94BA0782E061E041E00E94BA0782E0BC
:1018400062E041E00E94BA0720E931E048EC50E054
:10185000CA010197F1F721503040D1F782E00E9490
:10186000050B88E20E94050B8CE00E94050B86E0C8
:101870000E94050B81E00E94050B80EA9FE0019722
:10188000F1F70895EF92FF920F931F93F82E82E0E5
:1018900060E040E00E94490782E061E040E00E9491
:1018A000490788B39F2D907F8F70982B98BB82E05B
:1018B00062E041E00E94490722E0E22E8E2D8A95E7
:1018C000F1F782E062E040E00E94490708EC10E096
:1018D000C8010197F1F788B3F29490EFF9228F7065
:1018E0008F2988BB82E062E041E00E944907EA94C8
:1018F000F1F782E062E040E00E944907C8010197E9
:10190000F1F71F910F91FF90EF900895FF920F93C1
:101910001F93082F82E060E041E00E94490782E0C7
:1019200061E040E00E944907602F607F81E00E94F3
:101930000A0742E0F42E8F2D8A95F1F782E062E0EB
:1019400041E00E9449078F2D8A95F1F782E062E01D
:1019500040E00E94490788EC90E00197F1F710E021
:1019600002951295107F1027007F102781E0602FCD
:101970000E940A0782E062E041E00E944907FA946F
:10198000F1F782E062E040E00E94490780EA9FE0D0
:101990000197F1F71F910F91FF9008951F93182F52
:1019A00082E060E041E00E94490782E061E040E0BF
:1019B0000E94490781E0612F0E940A0782E062E0ED
:1019C00041E00E94490782E08A95F1F782E062E0F7
:1019D00040E00E94490785E88A95F1F71F91089534
:1019E000EF92FF921F93DF93CF93CDB7DEB72A9785
:1019F0000FB6F894DEBF0FBECDBF9C01009781F1FA
:101A000010E07E010894E11CF11CF701E10FF11DCB
:101A1000C9016AE070E00E94C210805D8083C90144
:101A20006AE070E00E94C2109B011F5F61157105A2
:101A300061F7112349F01150F701E10FF11D808189
:101A40000E94CE0C1123B9F72A960FB6F894DEBF88
:101A50000FBECDBFCF91DF911F91FF90EF90089502
:101A600080E30E94CE0CF0CF1F93182F82E060E03D
:101A700041E00E94BA0782E060E040E00E9449072E
:101A800082E061E040E00E94490781E06FEF0E9440
:101A9000F90681E0612F0E940A0782E06FEF0E9441
:101AA000F90682E062E041E00E94490780EA9FE097
:101AB0000197F1F782E062E040E00E9449071F9140
:101AC0000895803110F4623008F00895662321F4FF
:101AD00080580E94340D08958054FBCF1F93182F17
:101AE00082958F700E94340D812F8F700E94340D6B
:101AF0001F9108951F9381E06FEF0E94F90682E025
:101B000060E041E00E94BA0782E061E041E00E94AB
:101B1000BA0782E062E041E00E94BA0720E931E0C2
:101B200048EC50E0CA010197F1F721503040D1F75D
:101B300080E30E94340D80E29EE40197F1F780E398
:101B40000E94340D80ED97E00197F1F780E30E9449
:101B5000340D8CE291E00197F1F788E30E94340D97
:101B600015E8812F8A95F1F788E00E94340D812FC6
:101B70008A95F1F781E00E94340D80E797E10197A3
:101B8000F1F786E00E94340D812F8A95F1F78CE001
:101B90000E94340D1A95F1F71F9108958D9A82E8ED
:101BA0008FBD8AE18EBD80E29EE497BD86BD08951B
:101BB000A0E0B0E0BC01CD0120ED37E040E050E016
:101BC0000E94A31024EB30E040E050E00E94D610C9
:101BD0002C503E4F81E0243F380728F424EF31E0B9
:101BE0003BBD2ABD089589E0253C3807C8F324ECA5
:101BF00039E03BBD2ABD089582E060E00E941B07EA
:101C00000895882359F482E060E040E00E94BA071A
:101C100082E060E041E00E9449070895813009F0C8
:101C2000089582E060E040E00E94BA0708950F93B3
:101C30001F9383E063E041E00E94490783E062E094
:101C400040E00E94490783E061E040E00E944907CC
:101C500083E060E040E00E94490700E117E2C8012C
:101C60000197F1F783E063E040E00E94490783E0D9
:101C700062E041E00E94490783E061E040E00E94A9
:101C8000490783E060E040E00E944907C8010197EE
:101C9000F1F783E063E040E00E94490783E062E0FF
:101CA00040E00E94490783E061E041E00E9449076B
:101CB00083E060E040E00E944907C8010197F1F726
:101CC00083E063E040E00E94490783E062E040E097
:101CD0000E94490783E061E040E00E94490783E0F9
:101CE00060E041E00E944907C8010197F1F71F91A8
:101CF0000F9108950F931F9383E060E041E00E94ED
:101D0000490783E061E040E00E94490783E062E028
:101D100040E00E94490783E063E040E00E944907F9
:101D200000E117E2C8010197F1F783E060E040E0CD
:101D30000E94490783E061E041E00E94490783E097
:101D400062E040E00E94490783E063E040E00E94D7
:101D50004907C8010197F1F783E060E040E00E9485
:101D6000490783E061E040E00E94490783E062E0C8
:101D700041E00E94490783E063E040E00E94490798
:101D8000C8010197F1F783E060E040E00E94490755
:101D900083E061E040E00E94490783E062E040E0C8
:101DA0000E94490783E063E041E00E944907C801BF
:101DB0000197F1F71F910F91089583E060E041E0F2
:101DC0000E94BA0783E061E041E00E94BA0783E025
:101DD00062E041E00E94BA0783E063E041E00E94D4
:101DE000BA0708951F920F920FB60F9211248F9386
:101DF0009F93AF93BF938091BA019091BB01A09143
:101E0000BC01B091BD010196A11DB11D8093BA0125
:101E10009093BB01A093BC01B093BD01BF91AF9162
:101E20009F918F910F900FBE0F901F90189580E09B
:101E300060E041E00E9449078AE18A95F1F780E07D
:101E400060E040E00E9449071092B7018091B7011D
:101E50008823E1F36091B8017091B90180E090E0CE
:101E60000E94490420E030E040E850E40E941F0254
:101E700020E030E048E652E40E941903089580E033
:101E800060E041E00E94BA0783E062E040E00E9427
:101E9000BA0783E083BF89B7816089BF85B7816056
:101EA00085BF85B78D7F85BF8BB780648BBF0E9450
:101EB0004F0808951F920F920FB60F9211242F937F
:101EC0003F934F935F936F937F938F939F93AF93C2
:101ED000BF93EF93FF9383E062E00E941B07882388
:101EE00041F582B72091BA013091BB014091BC010C
:101EF0005091BD01542F432F322F222790E0820FA3
:101F0000931F9093B9018093B80181E08093B7014A
:101F1000FF91EF91BF91AF919F918F917F916F91C1
:101F20005F914F913F912F910F900FBE0F901F9097
:101F3000189512BE1092BA011092BB011092BC010A
:101F40001092BD011092BF011092BE01E1CF1F920D
:101F50000F920FB60F9211242F933F934F935F93DD
:101F60006F937F938F939F93AF93BF93EF93FF9361
:101F70008BB380588BBB8CB18C3409F442C08D3448
:101F8000C8F0823571F1833531F18D3411F410923E
:101F90008201FF91EF91BF91AF919F918F917F91BE
:101FA0006F915F914F913F912F910F900FBE0F90C6
:101FB0001F9018958234E9F0863431F0813449F766
:101FC00081E080938201E5CF80918201882309F727
:101FD0000E94890ADECF809182018823D1F684E0B5
:101FE000F7CF809182018823A1F683E00E94890ABD
:101FF000D0CF80918201882361F681E00E94890A16
:10200000C8CF80918201882321F682E00E94890A4C
:10201000C0CF0F931F93CF93DF930E94170F20ED34
:1020200037E048EC50E0FA013197F1F721503040A9
:10203000D1F70E94490065517040633B710508F477
:1020400058C084E00E94890A80E090E00E94D80D88
:1020500020E43FE148EC50E0CA010197F1F721503C
:102060003040D1F70E94170F0E9449008B0184EB8A
:1020700090E00E94D80D20E43FE148EC50E0CA0116
:102080000197F1F721503040D1F70E94170F0E94BD
:102090004900EB018AE590E00E94D80DC017D107F6
:1020A000B8F06F9770F581E00E94890A28E833E163
:1020B00048EC50E0CA010197F1F721503040D1F7C8
:1020C00084E00E94890ADF91CF911F910F910895BA
:1020D0000F31110540F383E00E94890A20EA3FE0B6
:1020E00048EC50E0CA010197F1F721503040D1F798
:1020F000E7CF80E00E94890ADF91CF911F910F9175
:10210000089582E00E94890A20EA3FE048EC50E00E
:10211000CA010197F1F721503040D1F7D1CF82E0C9
:102120006FEF0E94F9060E94F00A0E94CE0D0E94F5
:102130003F0F0E94CA067894809182018130E1F7B6
:102140000E940910F9CF629FD001739FF001829F16
:10215000E00DF11D649FE00DF11D929FF00D839F36
:10216000F00D749FF00D659FF00D9927729FB00DD3
:10217000E11DF91F639FB00DE11DF91FBD01CF01E6
:1021800011240895AA1BBB1B51E107C0AA1FBB1F46
:10219000A617B70710F0A61BB70B881F991F5A95F3
:1021A000A9F780959095BC01CD010895A1E21A2E62
:1021B000AA1BBB1BFD010DC0AA1FBB1FEE1FFF1FEB
:1021C000A217B307E407F50720F0A21BB30BE40B3B
:1021D000F50B661F771F881F991F1A9469F7609582
:1021E0007095809590959B01AC01BD01CF0108953C
:1021F0002F923F924F925F926F927F928F929F9217
:10220000AF92BF92CF92DF92EF92FF920F931F9304
:10221000CF93DF93CDB7DEB7CA1BDB0B0FB6F894B5
:10222000DEBF0FBECDBF09942A88398848885F84F5
:102230006E847D848C849B84AA84B984C884DF8066
:10224000EE80FD800C811B81AA81B981CE0FD11D4A
:102250000FB6F894DEBF0FBECDBFED010895F89420
:02226000FFCFAE
:10226200000000000000000000010202030303035B
:102272000404040404040404050505050505050514
:1022820005050505050505050606060606060606F4
:1022920006060606060606060606060606060606DC
:1022A20006060606060606060707070707070707C4
:1022B20007070707070707070707070707070707AC
:1022C200070707070707070707070707070707079C
:1022D200070707070707070707070707070707078C
:1022E2000707070707070707080808080808080874
:1022F200080808080808080808080808080808085C
:10230200080808080808080808080808080808084B
:10231200080808080808080808080808080808083B
:10232200080808080808080808080808080808082B
:10233200080808080808080808080808080808081B
:10234200080808080808080808080808080808080B
:1023520008080808080808080808080808080808FB
:10236200080808080808080800010203040506070F
:1023720008090A0B0C0D0E0F0405060703020100E3
:04238200FFFF010058
:00000001FF
